:100000000C9460000C947D000C947D000C947D0099
:100010000C947D000C947D000C947D000C947D006C
:100020000C947D000C947D000C947D000C9488054C
:100030000C94D3050C947D000C947D000C947D00F1
:100040000C947D000C947D000C949E080C947D0013
:100050000C947D000C947D000C947D000C947D002C
:100060000C947D000C947D004E6F207468616E6B63
:1000700020796F75204279650048657920686F772F
:100080002061726520796F752049206D65616E0071
:1000900048656C6C6F20576F726C64204920616DED
:1000A00020537564657368204D6F72657920616EA9
:1000B000642077686F2061726520796F753F00005A
:1000C00011241FBECFEFD8E0DEBFCDBF11E0A0E00E
:1000D000B1E0E8E6F6E102C005900D92AE37B10757
:1000E000D9F722E0AEE7B1E001C01D92A937B2070F
:1000F000E1F70E94B9010C94320B0C940000E091DE
:100100002402F0912502248135812A34310581F0C1
:1001100030F4232B41F11582148283E008952F34AB
:100120003105B9F122353105B1F78D3881F502C0BD
:10013000853869F5E0915E01F0915F0161E08FE043
:10014000099521E04DEC5CEC6CEC7DE380912402A0
:10015000909125020E942602E0912402F09125024E
:100160008FE490E012C0CF010E94200250E040E0F6
:1001700065E880912402909125020E948604E09116
:100180002402F09125028AE490E09583848381E043
:1001900008958D38E1F7E0915E01F0915F0160E034
:1001A0008FE0099521E04DEC5CEC6CEC7DE38091F7
:1001B0002402909125020E942602E0912402F091EF
:1001C000250282E590E0E1CFCF93DF93E091240216
:1001D000F0912502248135812C313105E9F024325A
:1001E000310509F440C0232B09F040C0CF010E9423
:1001F000200250E040E065E88091240290912502C1
:100200000E948604E0912402F09125028CE190E0A6
:100210009583848381E02DC08538E1F7C0915E012C
:10022000D0915F0161E08DE0FE010995E0917701D9
:10023000F091780180E990E0099560E08DE0FE01A1
:10024000099520E040E050E060E070E480912402F5
:10025000909125020E942602E0912402F09125024D
:1002600084E290E0D5CF8D38A9F6D8CF15821482DC
:1002700083E0DF91CF910895E0912402F09125026F
:100280002481358121333105E9F02D33310509F41D
:100290004FC0232B09F04FC0CF010E94200250E035
:1002A00040E065E880912402909125020E94860436
:1002B000E0912402F091250281E390E0958384830C
:1002C00081E008958538E1F7E0916901F0916A01D4
:1002D0000995892BD9F0E0916B01F0916C0109959A
:1002E00080937E01813639F4E0917701F0917801B5
:1002F00089E790E0099580917E01823639F4E0919A
:100300007701F091780188E690E0099520E04AE0D5
:1003100057ED63E27CE380912402909125020E94D4
:100320002602E0912402F09125028DE390E0C6CFF1
:100330008D3831F6C9CF1582148283E00895CF93AA
:10034000DF93E0916501F091660141E860EC72E1B4
:1003500080E090E00995C0915C01D0915D0161E081
:100360008DE0FE01099561E08FE0FE01DF91CF9104
:1003700009940E949F010E9452050E947E030E94E0
:10038000D50170E060E087E491E00E94FD0380E029
:1003900091E00E94AF040E942B04C82F0E947E05AA
:1003A000C111F9CF0E948005F6CF10928001109202
:1003B0007F01089587E491E00C94A3040F931F93A9
:1003C000CF93DF9300D000D000D0CDB7DEB78C0143
:1003D00019821A821B821C821E821D82BE016B5FE3
:1003E0007F4FCE0101960E94FD05F8014685578595
:1003F0006089718989819A81AB81BC8148175907CD
:100400006A077B07B9F4828993892D813E81281779
:10041000390768F00E94DA0126960FB6F894DEBF1D
:100420000FBECDBFDF91CF911F910F9108950E9414
:100430004706F2CF481759076A077B0768F7EACFE4
:10044000BC016E5E7F4F0E960C94FD058F929F92BD
:10045000AF92BF92CF92DF92EF92FF920F931F93D2
:10046000CF93DF9300D000D000D0CDB7DEB78C01A2
:100470006A017B01213009F08DC0FC0186859785DA
:10048000A089B18989839A83AB83BC83828993894C
:100490009E838D832FE632E143E85AE3C701B6011C
:1004A0000E94370987FF08C08FE6C82E82E1D82E48
:1004B00083E8E82E8AE3F82E20E030E04AE754E4AF
:1004C000C701B6010E948F0A0E94AE0928EE33E0F0
:1004D00040E050E00E94100BED81FE81CF01860FBD
:1004E000971FC980DA80EB80FC80C20ED31EE41E09
:1004F000F51E68EE73E00E94FC0A46015701860E65
:10050000971EA11CB11CB501A401D8011E964D93E4
:100510005D936D937C93519753969C938E935297D2
:10052000E0917F01F09180013097A9F0C684D784D3
:10053000E088F1884C155D056E057F0560F04C156F
:100540005D056E057F0509F04DC02289338982174C
:10055000930708F047C0D8011D96FC93EE931C97B3
:100560001093800100937F01C8010E94DE0126964E
:100570000FB6F894DEBF0FBECDBFDF91CF911F91B4
:100580000F91FF90EF90DF90CF90BF90AF909F9032
:100590008F900895BE016B5F7F4FCE0101960E9440
:1005A000FD0578CFD5011E96CD90DD90ED90FC90A5
:1005B00051974C155D056E057F0540F4D8011D96D9
:1005C000BC92AE921C9715870487D1CF4C155D0560
:1005D0006E057F0531F452962D913C918217930759
:1005E00068F3F501A484B584A114B104D9F6D80147
:1005F0001D961C921E921C97E6CF0F931F93CF93CC
:10060000DF9300D000D000D0CDB7DEB78C01BE01A3
:100610006B5F7F4FCE0101960E94FD05F801468574
:1006200057856089718989819A81AB81BC8148171E
:1006300059076A077B0778F0481759076A077B074D
:1006400041F481E0428953892D813E812417350789
:1006500018F480E001C081E026960FB6F894DEBF62
:100660000FBECDBFDF91CF911F910F910895E09103
:100670002402F0912502248135812115310559F09C
:1006800023363105B9F5823871F480917F0190915C
:100690008001009751F4E0912402F091250283E655
:1006A00090E09583848381E008950E94FD02882371
:1006B000C1F050E040E06DE880917F0190918001B1
:1006C0000E948604892B59F4E0917F01F09180010A
:1006D000848595859093800180937F01D6CF0E9479
:1006E000DA0180917F01909180010097A1F20E9430
:1006F000DE01D1CF1582148283E008951092220288
:1007000010922302109227021092260210922502C4
:10071000109224020895A0912602B0912702FD01B3
:10072000E817F90739F0309709F408950190F0813E
:10073000E02DF6CF3097D9F0828581111286EA1725
:10074000FB0799F480819181909327028093260280
:1007500008958D919C9111978E179F0729F48081A0
:1007600091818D939C930895DC01109791F70895E2
:100770001F93CF93DF93DC011296ED91FC9130979C
:10078000C9F0162FEC01909325028093240282E099
:100790008A875F834E83862F09958250823010F0BE
:1007A000133831F4CE01DF91CF911F910C948B035C
:1007B00081E08A87DF91CF911F9108951F93CF9396
:1007C000DF9310928101C0912602D091270211E09F
:1007D000209721F4DF91CF911F9108958B85882375
:1007E00041F01A871B8650E040E062E8CE010E948B
:1007F000B8030990D881C02DEBCFCF93DF93309110
:10080000260220912702E32FF22FE817F907E1F0E3
:100810003097E9F40097C1F0AB01FC0130832183EC
:10082000909327028093260281E0828715821482AA
:10083000C0912402D091250261E8CF010E94B80343
:10084000D0932502C0932402DF91CF9108950190A7
:10085000F081E02DDACFFF920F931F93CF93DF93B8
:100860008091810181110E94DE0340912302442383
:1008700009F43FC0E09122022E2F30E085E0E89F8E
:10088000F0011124EE57FE4FF08001811281838127
:1008900094812F5F3F4F2F713327209322024150C5
:1008A00040932302C0912602D09127020097F9F0CD
:1008B000E1E8FE1203C021E0FC012287FC01228551
:1008C00020FF17C0A8016F2D0E94B80312C08091AD
:1008D000810181110E94DE038A8580FF05C0A80185
:1008E0006F2DCE010E94B8030990D881C02D2097AA
:1008F00071F79091810180912302890F9927991FA7
:10090000DF91CF911F910F91FF9008959C019091DD
:1009100023029032A9F0E0912202E90FEF7185E005
:10092000E89FF0011124EE57FE4F6083528341830C
:10093000348323839F5F9093230290E080E00895A7
:1009400081E090E00895009749F0FC012285215054
:10095000223020F421E02387209381010895CF9352
:10096000DF93EC0189919991009719F4DF91CF9170
:10097000089570E060E00E94FD03F4CF1F93CF93D1
:10098000DF93FC012285211129C0EC010190F08147
:10099000E02D8C819D81E80FF91F60838C819D8102
:1009A00001966A817B810E94FC0A9D838C830E9450
:1009B0004D05182F81110E944B0588859985019658
:1009C000998788872A813B818217930711F481E0F8
:1009D0008A8711110E94490581E001C080E0DF9102
:1009E000CF911F9108950F931F93CF93DF93FC0135
:1009F000208531851FEF232BF9F0EC01868197814B
:100A00000190F081E02DE80FF91F108101966A81B5
:100A10007B810E94FC0A9F838E830E944D05082FD4
:100A200081110E944B058885998501979987888750
:100A30001A8601110E944905812FDF91CF911F91E4
:100A40000F910895FC018085918508951F93CF93A0
:100A5000DF93EC010E944D05182F81110E944B0578
:100A60001D821C821F821E82198618861A861123F7
:100A700029F0DF91CF911F910C944905DF91CF911F
:100A80001F910895FC0171836083538342830C940A
:100A9000260578940895F89408958FB7881F8827BD
:100AA000881F08951092800082E080938100109248
:100AB000850010928400109287001092860084E2D4
:100AC00094EF90938900809388008FEF9FEF90932D
:100AD0008B0080938A0086E080936F0083B78160EB
:100AE00083BFA89588E19FE00FB6F894A8958093FE
:100AF00060000FBE9093600078940895A8950895C3
:100B000083B7816083BF889583B78E7F83BF089545
:100B10001F920F920FB60F9211242F933F934F9372
:100B20005F936F937F938F939F93AF93BF93EF9355
:100B3000FF9310928500109284008091280290917A
:100B400029028C509E4F68EE73E00E94FC0A9B01C4
:100B500040912A0250912B0260912C0270912D023B
:100B6000420F531F611D711D40932A0250932B02A7
:100B700060932C0270932D02909329028093280297
:100B80000E94DA01FF91EF91BF91AF919F918F91F8
:100B90007F916F915F914F913F912F910F900FBE79
:100BA0000F901F9018951F920F920FB60F9211245D
:100BB0002F933F934F935F936F937F938F939F9365
:100BC000AF93BF93EF93FF938FEF9FEF90938B00C3
:100BD00080938A000E94DA01FF91EF91BF91AF915B
:100BE0009F918F917F916F915F914F913F912F9145
:100BF0000F900FBE0F901F9018958F929F92AF92FB
:100C0000BF92CF92DF92EF92FF920F931F93CF93F9
:100C1000DF938C01EB0180902A0290902B02A09030
:100C20002C02B0902D02E0902802F0902902F0E012
:100C3000E0E030E020E08DE7C82ED12C80918400E8
:100C400090918500B6010E94FC0A6E0D7F1D211552
:100C5000310519F06E177F0731F02F5F3F4FFB0111
:100C60002A30310559F7F80180829182A282B3823D
:100C700079836883DF91CF911F910F91FF90EF905F
:100C8000DF90CF90BF90AF909F908F90089520916C
:100C900028023091290228173907C8F4821B930BC8
:100CA000843F21E09207D0F44DE7489F9001499F8F
:100CB000300D112480918400909185008217930754
:100CC00040F08FEF9FEF90938B0080938A000C94FD
:100CD000DA0130938B0020938A00089508956330E1
:100CE00008F054C0982F969596959695877021E0B8
:100CF00030E001C0220F8A95EAF7822F809561309B
:100D0000E1F4923061F0933089F0913009F03FC006
:100D100094B1292B24B995B1892385B9089597B148
:100D2000292B27B998B1892388B908959AB1292B1D
:100D30002AB99BB189238BB929C0923069F09330CD
:100D4000A1F09130D9F494B1982394B9623019F795
:100D500085B1282B25B9089597B1982397B96230AA
:100D600009F788B1282B28B908959AB198239AB920
:100D70006230F9F68BB1282B2BB90895623039F423
:100D8000923079F39330B1F3913011F308959230AA
:100D900049F2933071F29130C9F7BDCF6330F0F46E
:100DA000982F96959695969587706130C1F421E0BD
:100DB00030E001C0220F8A95EAF7923041F093307B
:100DC00051F0913059F485B1282B25B9089588B197
:100DD000282B28B908958BB1282B2BB908956111C0
:100DE00016C021E030E001C0220F8A95EAF7209575
:100DF000923039F0933041F0913081F785B128235A
:100E0000E4CF88B12823E5CF8BB12823E6CF623029
:100E100029F721E030E001C0220F8A95EAF79230ED
:100E200039F0933041F09130C9F685B12827CDCF04
:100E300088B12827CECF8BB12827CFCF482F477036
:100E400021E030E0042E01C0220F0A94EAF7982F27
:100E5000969596959695923069F0933069F0913019
:100E600069F483B1822390E002C0959587954A95F5
:100E7000E2F7089586B1F6CF89B1F4CF80E0089506
:100E80001092C1001092C20008959091C00095FF89
:100E9000FCCF8093C6000895CF93DF93EC01899136
:100EA000811103C0DF91CF9108950E944507F7CFCC
:100EB0000E944C078DE00E9445078AE00C9445078C
:100EC000CF93DF93EC01FE018491811103C0DF9188
:100ED000CF910895FE0184910E9445072196F3CF9A
:100EE0000E9460078DE00E9445078AE00C94450748
:100EF0000F931F93CF93DF93EC018C01060F171F05
:100F0000C017D10729F4DF91CF911F910F91089558
:100F100089910E944507F4CF8091C00086FB882705
:100F200080F908958EE292E00C9426058EE292E01C
:100F30000C94F3048EE292E00C9422054F925F929F
:100F40006F927F928F929F92AF92BF92CF92DF92D9
:100F5000EF92FF92CF93DF9300D000D0CDB7DEB7F2
:100F60006B017C01498388E08093C1008091C100BE
:100F700080698093C10040E450E069E372E08EE252
:100F800092E00E944205E981E295EF70E65080E828
:100F9000E33020F4F0E0EE59FE4F80819981969580
:100FA00096959370913009F4B3C0923009F4B2C0B1
:100FB00029812370223009F488608093C200C70120
:100FC000B6010E94DD094B015C0120E030E040E801
:100FD00051E40E948F0A9B01AC0160E074E284E757
:100FE00099E40E943C0920E030E040E85FE30E9481
:100FF000CA086B017C010E94AE092B013C010E94D2
:10100000DD099B01AC01C701B6010E94CA08A70116
:1010100096010E943C0920E030E048EC52E40E9436
:101020008F0A6B017C0120E030E0A9010E943709A2
:1010300087FF04C0F7FAF094F7F8F09420E030E06E
:1010400040E051E4C501B4010E948F0A9B01AC014C
:1010500060E074E284E799E40E943C0920E030E01B
:1010600040E85FE30E94CA084B015C010E94AE09A0
:1010700069837A838B839C830E94DD099B01AC0189
:10108000C501B4010E94CA08A50194010E943C094F
:1010900020E030E048EC52E40E948F0A4B015C01F2
:1010A00020E030E0A9010E94370987FF04C0B7FAA9
:1010B000B094B7F8B09420E030E040E05FE3C701BF
:1010C000B6010E94370987FD08C0A5019401C70138
:1010D000B6010E9437091816FCF0BB27A72D962DE4
:1010E000852D8093C5004092C4000F900F900F9003
:1010F0000F90DF91CF91FF90EF90DF90CF90BF9056
:10110000AF909F908F907F906F905F904F900895D9
:1011100080634ECF80624CCF29813A814B815C81C4
:10112000BB27A52F942F832F8093C5002093C40045
:101130008091C00082608093C000D7CF1F920F9231
:101140000FB60F9211242F933F934F935F936F939A
:101150007F938F939F93AF93BF93EF93FF93809170
:10116000C0006091C6008C7121F48EE292E00E9472
:10117000BE04FF91EF91BF91AF919F918F917F91AD
:101180006F915F914F913F912F910F900FBE0F90F4
:101190001F9018955058BB27AA270E94E2080C946C
:1011A000550A0E94470A38F00E944E0A20F039F48E
:1011B0009F3F19F426F40C94440A0EF4E095E7FBE3
:1011C0000C943E0AE92F0E94660A58F3BA17620788
:1011D00073078407950720F079F4A6F50C94880A24
:1011E0000EF4E0950B2EBA2FA02D0B01B901900142
:1011F0000C01CA01A0011124FF27591B99F0593F86
:1012000050F4503E68F11A16F040A22F232F342FCD
:101210004427585FF3CF469537952795A795F0401B
:101220005395C9F77EF41F16BA0B620B730B840B30
:10123000BAF09150A1F0FF0FBB1F661F771F881FE8
:10124000C2F70EC0BA0F621F731F841F48F4879540
:1012500077956795B795F7959E3F08F0B0CF939532
:10126000880F08F09927EE0F9795879508950E94AB
:101270001A0A08F481E008950E9450090C94550A56
:101280000E944E0A58F00E94470A40F029F45F3F3E
:1012900029F00C943E0A51110C94890A0C94440ACA
:1012A0000E94660A68F39923B1F3552391F3951BC5
:1012B000550BBB27AA2762177307840738F09F5F77
:1012C0005F4F220F331F441FAA1FA9F335D00E2EE4
:1012D0003AF0E0E832D091505040E695001CCAF751
:1012E0002BD0FE2F29D0660F771F881FBB1F261714
:1012F00037074807AB07B0E809F0BB0B802DBF01EB
:10130000FF2793585F4F3AF09E3F510578F00C94B9
:101310003E0A0C94890A5F3FE4F3983ED4F3869525
:1013200077956795B795F7959F5FC9F7880F911DDA
:101330009695879597F90895E1E0660F771F881FC6
:10134000BB1F621773078407BA0720F0621B730B79
:10135000840BBA0BEE1F88F7E09508950E946E0A81
:1013600088F09F5798F0B92F9927B751B0F0E1F066
:10137000660F771F881F991F1AF0BA95C9F714C016
:10138000B13091F00E94880AB1E008950C94880A67
:10139000672F782F8827B85F39F0B93FCCF386954F
:1013A00077956795B395D9F73EF4909580957095AC
:1013B00061957F4F8F4F9F4F0895E89409C097FB29
:1013C0003EF490958095709561957F4F8F4F9F4F1C
:1013D0009923A9F0F92F96E9BB279395F695879560
:1013E00077956795B795F111F8CFFAF4BB0F11F423
:1013F00060FF1BC06F5F7F4F8F4F9F4F16C08823CA
:1014000011F096E911C0772321F09EE8872F762FFF
:1014100005C0662371F096E8862F70E060E02AF040
:101420009A95660F771F881FDAF7880F969587952C
:1014300097F90895990F0008550FAA0BE0E8FEEF01
:1014400016161706E807F907C0F012161306E40788
:10145000F50798F0621B730B840B950B39F40A2681
:1014600061F0232B242B252B21F408950A2609F45F
:10147000A140A6958FEF811D811D089597F99F6763
:1014800080E870E060E008959FEF80EC089500240C
:101490000A941616170618060906089500240A94D9
:1014A00012161306140605060895092E0394000C5F
:1014B00011F4882352F0BB0F40F4BF2B11F460FFEE
:1014C00004C06F5F7F4F8F4F9F4F089557FD905817
:1014D000440F551F59F05F3F71F04795880F97FBF8
:1014E000991F61F09F3F79F08795089512161306B2
:1014F0001406551FF2CF4695F1DF08C016161706E1
:101500001806991FF1CF8695710561050894089515
:10151000E894BB2766277727CB0197F908950E94A7
:10152000A20A0C94550A0E94470A38F00E944E0AFB
:1015300020F0952311F00C943E0A0C94440A1124D7
:101540000C94890A0E94660A70F3959FC1F3950F67
:1015500050E0551F629FF001729FBB27F00DB11D37
:10156000639FAA27F00DB11DAA1F649F6627B00DC7
:10157000A11D661F829F2227B00DA11D621F739FB0
:10158000B00DA11D621F839FA00D611D221F749FBE
:101590003327A00D611D231F849F600D211D822F05
:1015A000762F6A2F11249F5750409AF0F1F088232C
:1015B0004AF0EE0FFF1FBB1F661F771F881F915059
:1015C0005040A9F79E3F510580F00C943E0A0C94C0
:1015D000890A5F3FE4F3983ED4F386957795679543
:1015E000B795F795E7959F5FC1F7FE2B880F911D83
:1015F0009695879597F90895AA1BBB1B51E107C0E3
:10160000AA1FBB1FA617B70710F0A61BB70B881F92
:10161000991F5A95A9F780959095BC01CD01089521
:10162000A1E21A2EAA1BBB1BFD010DC0AA1FBB1FE6
:10163000EE1FFF1FA217B307E407F50720F0A21B58
:10164000B30BE40BF50B661F771F881F991F1A94C5
:1016500069F760957095809590959B01AC01BD01EF
:08166000CF010895F894FFCFBB
:1016680032011D010801000000007F000000000099
:101678000000000000000000000000000000003C26
:101688000100000000000000000000000000000051
:1016980000000000E400000000000000000000005E
:1016A80000000000000000000037030000000000F8
:1016B8000000000000000000000000006F06CE06D9
:1016C8001E078284869E0740079A07960792074559
:0E16D800074C0758076007700778078C07005B
:00000001FF
