:100000000C947B040C9498040C9498040C940310A6
:100010000C9498040C9498040C9498040C949804F0
:100020000C9498040C9498040C9498040C949804E0
:100030000C9498040C9498040C9498040C949804D0
:100040000C9498040C94A6160C9498040C949804A0
:100050000C9498040C9498040C9498040C949804B0
:100060000C9498040C9498040C9498040C949804A0
:100070000C9498040C9498040C9498040C94980490
:100080000C9498040C9498040C9498040C94980480
:100090000C9498040C9498040C9498040C94980470
:1000A0004C4544204F6666004C4544204F6E00503E
:1000B00074696D6572206E6F742065787069726501
:1000C00064003C4445425547205054494D45523EFA
:1000D00020005074696D6572206E6F7420657870B1
:1000E00069726564003C4445425547205054494D6F
:1000F00045523E20005074696D65722065787069C4
:10010000726564206D696C6C697365636F6E64738E
:10011000003C4445425547205054494D45523E20ED
:10012000005074696D65722065787069726564202D
:100130007365636F6E6473003C44454255472050BD
:1001400054494D45523E2000436865636B696E67B4
:10015000206966205074696D6572206578706972D7
:100160006564003C4445425547205054494D455232
:100170003E20007020657870697279206D696C6C22
:10018000697365636F6E6473203C207074696D657C
:10019000725F6C69737420657870697279003C4491
:1001A00045425547205054494D45523E200070204D
:1001B000657870697279207365636F6E6473203C33
:1001C000207074696D65725F6C69737420657870F6
:1001D000697279003C4445425547205054494D4589
:1001E000523E20005074696D6572207363686564C7
:1001F000756C6564003C4445425547205054494D58
:1002000045523E20005363686564756C65206E65D9
:100210007874207469636B6C6573732070657269A0
:100220006F642072657175657374003C4445425576
:1002300047205054494D45523E20005074696D6529
:1002400072207365742C204578706972792053652B
:10025000636F6E6473203D20003C44454255472047
:100260005054494D45523E200044656C61792053FD
:1002700063686564756C65642C2044656C617920E5
:100280003D20003C4445425547205054494D45527D
:100290003E20004E756C6C207461736B20706F692A
:1002A0006E746572003C4445425547205054494D98
:1002B00045523E20005074696D65722073746172FE
:1002C000746564003C4445425547205054494D45AF
:1002D000523E20005074696D657220706F6C6C2006
:1002E000726571756573746564003C444542554799
:1002F000205054494D45523E20005461736B2045B7
:10030000787069726564207365636F6E6473003C16
:100310004445425547205054494D45523E200052D5
:10032000657175657374207469636B6C6573732094
:1003300074696D657220706C6174666F726D003CDB
:100340004445425547205054494D45523E200054A3
:1003500061736B2045787069726564206D696C6C9F
:10036000697365636F6E6473003C44454255472072
:100370005054494D45523E20004E6F207469636BC6
:100380006C657373207363686564756C65003C44C9
:1003900045425547205054494D45523E2000707407
:1003A000696D6572206C697374203D20003C444582
:1003B000425547205054494D45523E2000636865E0
:1003C000636B20666F72207469636B6C6573732056
:1003D0007363686564756C65003C4445425547200D
:1003E0005054494D45523E200054696D6572206558
:1003F00076656E7420706F7374206661696C7572B7
:1004000065003C4445425547205054494D45523EB5
:10041000200054696D6572206576656E7420706F7A
:1004200073742073756363657373003C4445425570
:1004300047205054494D45523E20005054494D45A7
:10044000522043616C6C6564003C44454255472032
:100450005054494D45523E20005054494D4552207C
:100460005461736B20496E69746961746564003C02
:100470004445425547205054494D45523E20005274
:10048000657175657374696E67205461736B205074
:100490006F6C6C003C4445425547205441534B3EE1
:1004A0002000506F7374696E67205461736B003C59
:1004B0004445425547205441534B3E2000546173FC
:1004C0006B20706F7374206661696C6564003C44D6
:1004D00045425547205441534B3E2000446F204530
:1004E00076656E74003C4445425547205441534B59
:1004F0003E2000506F6C6C696E67205461736B0016
:100500003C4445425547205441534B3E2000646FC4
:100510005F6576656E7420636F6D706C65746500E1
:100520003C4445425547205441534B3E2000646FA4
:100530005F706F6C6C20636F6D706C657465003CF0
:100540004445425547205441534B3E20005461736B
:100550006B2072756E003C44454255472054415310
:100560004B3E20005461736B2065786974656400AC
:100570003C4445425547205441534B3E2000546172
:10058000736B206E6F742072756E6E696E672C20AF
:1005900065786974206661696C6564003C44454215
:1005A0005547205441534B3E200043616C6C696EAB
:1005B00067205461736B003C4445425547205441C9
:1005C000534B3E20005461736B20737461727465E9
:1005D00064003C4445425547205441534B3E200063
:1005E0005461736B20616C72656164792072756E01
:1005F0006E696E672C207374617274206661696C19
:100600006564003C4445425547205441534B3E20CD
:10061000005461736B206B65726E656C20496E6966
:10062000746961746564003C4445425547205441F7
:10063000534B3E2000205D20005B2000576F6B6510
:100640006E207570003C4445425547204D4547415A
:10065000343830393E2000536C656570696E670030
:100660003C4445425547204D454741343830393E9A
:1006700020005761746368646F6720526573657406
:10068000003C4445425547204D45474134383039B8
:100690003E20005761746368646F672054696D651C
:1006A0007220696E697469616C697A6564202832A8
:1006B000732074696D656F757429003C444542551B
:1006C00047204D454741343830393E2000536C6552
:1006D0006570204D6F646520496E69746961746549
:1006E00064003C4445425547204D4547413438302D
:1006F000393E20004F532054494D4552203A205254
:10070000544320496E69746961746520537563634D
:100710006573732C20696E7465726E616C204F5323
:100720004333324B003C4445425547204D454741F9
:10073000343830393E2000436C6F636B20496E695A
:1007400074696174652053756363657373203A201F
:10075000496E7465726E616C203230204D487A208B
:100760004F736369616C6C746F72003C4445425511
:1007700047204D454741343830393E2000546963A5
:100780006B6C6573732065787069726564203A20BC
:100790006D696C6C697365636F6E6473003C44458E
:1007A00042554720434C4F434B3E2000436F6E64FD
:1007B0006974696F6E206E6F7420736174697366FB
:1007C000696564003C444542554720434C4F434BC8
:1007D0003E2000436F6E646974696F6E20736174AC
:1007E0006973666965642C207469636B6C657373E7
:1007F000206D696C6C695365636F6E6473203D2076
:10080000003C444542554720434C4F434B3E20005B
:100810005469636B6C657373206578706972656485
:10082000203A207469636B73003C4445425547206D
:10083000434C4F434B3E20005469636B6C657373AC
:100840002065787069726564203A207469636B73FF
:10085000003C444542554720434C4F434B3E20000B
:100860006765745F636C6F636B5F74696D65203A75
:1008700020313020697465726174696F6E206C6F0D
:100880006F7020627265616B003C444542554720A1
:10089000434C4F434B3E20005469636B6C6573734C
:1008A0002054696D657220496E746572727570743A
:1008B0002063616C6C6564003C44454255472043AD
:1008C0004C4F434B3E20005469636B696E67205464
:1008D000696D657220496E746572727570742063FB
:1008E000616C6C6564003C444542554720434C4F65
:1008F000434B3E20000011241FBECFEFCDBFDFE3EE
:10090000DEBF18E2A0E0B8E2EAE2F4E302C005903C
:100910000D92A233B107D9F729E2A2E3B8E201C0F0
:100920001D92AB36B207E1F70E941C050C947F19AB
:100930000C940000E091D728F091D82826813781C7
:100940002C34310509F446C050F42115310569F104
:100950002634310549F01682178283E00895203548
:100960003105C9F78D3801C0853891F5E0912474BF
:10097000F091257488EA90E00995E0910E74F09169
:100980000F7461E08CE0099521E043E353E363E1F8
:1009900070E48091D7289091D8280E948A06E0912F
:1009A000D728F091D8288CE411C0CF010E946906A5
:1009B00040E050E065E88091D7289091D8280E94C7
:1009C0007309E091D728F091D82886E486831782AE
:1009D00081E008958D38E1F7E0912474F091257459
:1009E00080EA90E00995E0910E74F0910F7460E058
:1009F0008CE0099521E04DEC5CEC6CE270E48091B8
:100A0000D7289091D8280E948A06E091D728F091A3
:100A1000D82880E5DBCFE0911274F091137441E89F
:100A200060E074E883E090E00995E0910C74F09147
:100A30000D7461E08CE009940F92CDB7DEB70E948F
:100A40000B050E94450F0E9450090E948B0560E033
:100A500070E08BE198E20E94CC0A80E098E20E946C
:100A60005C0C0E94A90B89830E94B80F89818111B7
:100A7000F8CF0E94D00FF5CF0F931F93CF93DF9342
:100A8000EB01FC0100891189228933894889598940
:100A90006A897B890417150726073707E0F40E9447
:100AA000AD0CE0912274F091237484ED91E00995EE
:100AB0004EEC53E7BE01CA010E94BF0CE0912474C2
:100AC000F09125748EEA91E0099581E0DF91CF9154
:100AD0001F910F910895E9F4248935898C899D89A6
:100AE00028173907B0F40E94AD0CE0912274F09100
:100AF00023748EE991E009954EEC53E7BE01CA01DB
:100B00000E94BF0CE0912474F091257483E791E07A
:100B1000DBCF80E0DBCF10923228109233280E9486
:100B2000AD0CE0912274F09123748FE694E0099566
:100B30004EEC53E760E070E0CA010E94BF0CE09108
:100B40002474F091257489E594E009948BE198E28E
:100B50000E94D9090E94AD0CE0912274F091237497
:100B60008AEE92E009954EEC53E760E070E0CA012E
:100B70000E94BF0CE0912474F091257484ED92E002
:100B80000994CF92DF92EF92FF920F931F93CF932E
:100B9000DF9300D000D000D0CDB7DEB78C01198232
:100BA0001A821B821C821D821E82BE016B5F7F4FD8
:100BB000CE0101960E949D10F80180899189A28939
:100BC000B38949815A816B817C81481759076A072B
:100BD0007B07B0F40E94AD0CE0912274F091237475
:100BE0008EE893E009954EEC53E7B801CA010E94E4
:100BF000BF0CE0912474F091257489E793E0099586
:100C0000F801408951896289738989819A81AB8110
:100C1000BC81481759076A077B0709F043C0C09099
:100C20002274D0902374E0902474F0902574848909
:100C300095892D813E812817390798F00E94AD0CC7
:100C400089E693E0F60109954EEC53E7B801CA0135
:100C50000E94BF0C8FE493E0F70109950E94A6055E
:100C600015C00E94AD0C8FE393E0F60109954EECA0
:100C700053E7B801CA010E94BF0C8FE193E0F7016E
:100C80000995F801848995890E9422112696CDBF85
:100C9000DEBFDF91CF911F910F91FF90EF90DF901A
:100CA000CF90089598F70E94AD0CE0912274F091D6
:100CB00023748FE093E009954EEC53E7B801CA0125
:100CC0000E94BF0CE0912474F09125748AEF92E0A9
:100CD000C4CFCF93DF93EC01BC016C5E7F4F409695
:100CE0000E949D100E94AD0CE0912274F09123743B
:100CF00084EC92E009954EEC53E7BE01CA010E94D4
:100D0000BF0CE0912474F091257485EB92E0DF91A3
:100D1000CF9109944F925F926F927F928F929F92A0
:100D2000AF92BF92CF92DF92EF92FF920F931F93F9
:100D3000CF93DF9300D000D000D0CDB7DEB78C01C9
:100D40004A017B01722EC0902274D0902374A0902F
:100D50002474B0902574892B21F50E94AD0C85EA8E
:100D600092E0F60109954EEC53E760E070E0CA01AD
:100D70000E94BF0C83E992E0F5012696CDBFDEBF4D
:100D8000DF91CF911F910F91FF90EF90DF90CF9067
:100D9000BF90AF909F908F907F906F905F904F909B
:100DA000099440E050E09A01B401C7010E94441741
:100DB00087FF03C0812C912C7401F1E07F12D2C017
:100DC000F80180899189A289B38989839A83AB8349
:100DD000BC83848995898D839E832FE632E143E825
:100DE0005AE3B401C7010E94441787FFC3C062E100
:100DF0007FE68AE393E820E030E04AE754E4872E78
:100E0000962EE92EF82EB401C7010E94A3180E9465
:100E1000C21728EE33E040E050E00E9438194980C4
:100E20005A806B807C80420E531E641E751E2D817D
:100E30003E81C901860F971F68EE73E00E9410196A
:100E4000460E571E611C711CF801408A518A628A45
:100E5000738A848B958B0E94AD0C83E892E0F60137
:100E600009954EEC53E7B801CA010E94BF0C89E610
:100E700092E0F6010995B401C7010E943C0D0E9461
:100E8000AD0C89E592E0F60109954EEC53E7B80107
:100E9000CA010E94BF0C8BE392E0F6010995F801AC
:100EA00060897189828993890E940A0DE0911E747C
:100EB000F0911F748AEB93E70995F801848995896D
:100EC0000E94F10C609132287091332861157105F0
:100ED00009F055C08091322890913328F801868717
:100EE000978700933228109333280E94AD0C8BE231
:100EF00092E0F601099560913228709133284EEC0A
:100F000053E7CA010E94BF0C85E092E0F501099504
:100F100080913228909133280E94C1050E94AD0C27
:100F200085EF91E0F60109954EEC53E7B801CA014F
:100F30000E94BF0C84EE91E0F50109952696CDBF85
:100F4000DEBFDF91CF911F910F91FF90EF90DF9067
:100F5000CF90BF90AF909F908F907F906F905F9059
:100F60004F900895BE016B5F7F4FCE0101960E94A6
:100F70009D1033CF782D692D9E2D8F2D3CCFC8012C
:100F80000E943C05813009F4A5CF809032289090D2
:100F90003328F401E684F784E114F10421F4F80124
:100FA0001686178609C0B701C8010E943C0581302A
:100FB00039F4F801E686F786F40106871787AECF85
:100FC000F701968587854701E92EF82EE5CFCF9268
:100FD000DF92EF92FF920F931F93CF93DF9300D096
:100FE00000D000D0CDB7DEB78C010E94AD0CC09010
:100FF0002274D090237483E691E0F60109954EECBB
:1010000053E7B801CA010E94BF0CE0902474F0902D
:10101000257488E491E0F7010995BE016B5F7F4F6D
:10102000CE0101960E949D10F80140895189628984
:10103000738989819A81AB81BC81481759076A07F6
:101040007B07E8F40E94AD0C88E391E0F601099576
:101050004EEC53E7B801CA010E94BF0C81E291E057
:10106000F701099581E02696CDBFDEBFDF91CF91D4
:101070001F910F91FF90EF90DF90CF90089541F571
:10108000848995892D813E812817390778F00E943F
:10109000AD0C81E191E0F60109954EEC53E7B80102
:1010A000CA010E94BF0C85EF90E0DACF0E94AD0C20
:1010B00085EE90E0F60109954EEC53E7B801CA01C0
:1010C0000E94BF0C82ED90E0F701099580E0CBCF44
:1010D0000E94AD0C82EC90E0F60109954EEC53E7CE
:1010E000B801CA010E94BF0C8FEA90E0EDCFCF9209
:1010F000DF92EF92FF920F931F93CF93DF93E091D4
:10110000D728F091D828268137812115310509F497
:10111000ABC0233A310509F0BFC0823851F081E0FD
:10112000DF91CF911F910F91FF90EF90DF90CF90C3
:1011300008950E94AD0C009122741091237489E4EB
:1011400094E0F80109954EEC53E76BE178E2CA01AF
:101150000E94BF0CE0902474F09025748BE394E01F
:10116000F7010995C0913228D09133282097D9F101
:10117000CE84DF84CE010E94E7078115A1F140E013
:1011800050E06DE8CE010E947309892BD1F40E94D2
:10119000AD0C8BE294E0F80109954EEC53E7BE01EB
:1011A000CA010E94BF0C82E194E0F7010995C09248
:1011B0003228D09233281E861F86F1E0FE8BE6018E
:1011C000D5CF0E94AD0C82E094E0F80109954EEC79
:1011D00053E7BE01CA010E94BF0C89EE93E0F701FC
:1011E00009950E94A6058091322890913328892B79
:1011F000C9F00E94AD0C89ED93E0F801099560916A
:101200003228709133284EEC53E7CA010E94BF0C7C
:101210008DEB93E0F7010995809132289091332866
:101220000E94C1050E94AD0C8DEA93E0F80109957A
:101230004EEC53E760E070E0CA010E94BF0C8EE9FB
:1012400093E0F8010995C0913228D091332800919C
:101250001E7410911F74209779F4E0912074F0911E
:1012600021748EEC93E70995E091D728F091D82866
:1012700083EA8683178253CF8A819B81F80109957F
:101280008E859F85892B21F08CEC93E7F8010995D9
:101290000E84DF85C02DDFCF1682178283E040CF1A
:1012A0001092D5281092D6281092D9281092DA28B8
:1012B0001092D7281092D8280E94AD0CE091227489
:1012C000F091237487E296E009954EEC53E760E0D5
:1012D00070E0CA010E94BF0CE0912474F091257463
:1012E00081E196E00994EF92FF920F931F93CF93C1
:1012F000DF9300D000D00F92CDB7DEB78C839D83F3
:1013000069834A835B83E0902274F0902374009198
:101310002474109125748091D6288032E9F40E94BB
:10132000AD0C8EEC94E0F70109954EEC53E76C811F
:101330007D81CA010E94BF0C8DEB94E0F8010995F4
:1013400081E090E02596CDBFDEBFDF91CF911F9168
:101350000F91FF90EF9008950E94AD0C8FEA94E0FA
:10136000F70109954EEC53E76C817D81CA010E941B
:10137000BF0C82EA94E0F80109958091D628E091AB
:10138000D528E80FEF7125E0E29FF0011124EB5C16
:10139000F74D398130832A813B81218332832C812F
:1013A0003D81238334838F5F8093D62880E090E053
:1013B000C9CFCF93DF93EC01892B01F18C8581504C
:1013C0008230E0F481E08D87809334280E94AD0C58
:1013D000E0912274F091237484E994E009954EEC35
:1013E00053E7BE01CA010E94BF0CE0912474F09142
:1013F00025748FE794E0DF91CF910994DF91CF912D
:101400000895FC0180E0309731F091E084858111EE
:1014100001C090E0892F90E00895CF92DF92EF9283
:10142000FF920F931F93CF93DF93EC010091D92884
:101430001091DA28F801EC17FD0711F0309711F53B
:10144000C0902274D0902374E0902474F09025749E
:10145000EF2BE1F40E94AD0C8CE995E0F6010995C3
:101460004EEC53E7BE01CA010E94BF0C8EE795E027
:10147000F701DF91CF911F910F91FF90EF90DF90D7
:10148000CF9009940190F081E02DD5CFCE010E943C
:10149000010A892B09F01C860C171D07B1F48881FD
:1014A00099818093D9289093DA280E94AD0C80E727
:1014B00095E0F60109954EEC53E7BE01CA010E9482
:1014C000BF0C84E695E0D4CF8C010115110569F3BA
:1014D000F801808191818C179D07B1F788819981EE
:1014E00080839183E2CFCF93DF9300D000D00F921F
:1014F000CDB7DEB78C839D8369834A835B83DC0130
:101500001C968C911C9780FF41C014968D919D91E3
:10151000892BE1F10E94AD0CE0912274F0912374CB
:1015200087EB95E009954EEC53E76C817D81CA010C
:101530000E94BF0CE0912474F09125748AEA95E032
:101540000995EC81FD81E093D728F093D82882E0BB
:1015500084878A819B8180879187DF011496ED9132
:10156000FD91898109958250823018F0B981B33894
:1015700049F48C819D812596CDBFDEBFDF91CF914F
:101580000C940D0A81E0EC81FD8184872596CDBF06
:10159000DEBFDF91CF910895EF92FF920F931F93DB
:1015A000CF93DF9300D000D0CDB7DEB78B839C8381
:1015B00069837A83E091D928F091DA28309729F06D
:1015C0008B819C81E817F90739F5E0902274F0903F
:1015D000237400912474109125748B819C818E1743
:1015E0009F07F1F40E94AD0C83E096E0F7010995A6
:1015F0004EEC53E76B817C81CA010E94BF0C80EEE8
:1016000095E0F8012496CDBFDEBFDF91CF911F9109
:101610000F91FF90EF9009940190F081E02DCECFD3
:101620000E94AD0C82ED95E0F70109954EEC53E771
:101630006B817C81CA010E94BF0C85EC95E0F801AA
:1016400009958091D9289091DA28EB81FC818083DB
:10165000918381E084871682178215861086118611
:101660001286138616861786108A118A128A138AA2
:10167000148A158A168AE093D928F093DA28009103
:10168000D7281091D82849815A8161E8CF010E945A
:10169000730A0093D7281093D8282496CDBFDEBFB5
:1016A000DF91CF911F910F91FF90EF9008951F93BD
:1016B000CF93DF9300D000D000D0CDB7DEB710922B
:1016C00034288091D9289091DA288D839E83E091E7
:1016D0002274F0912374E983FA83809124749091A9
:1016E00025748B839C8311E08D819E81892B39F435
:1016F0002696CDBFDEBFDF91CF911F910895ED817A
:10170000FE8185858115E9F00E94AD0C80E095E0B1
:10171000E981FA8109954EEC53E76D817E81CA011A
:101720000E94BF0C83EF94E0EB81FC810995ED8171
:10173000FE811487158640E050E062E8CF010E94E8
:10174000730AED81FE810190F081E02DED83FE832F
:10175000CBCFCF92DF92EF92FF920F931F93CF9355
:10176000DF9300D00F92CDB7DEB70E94AD0C009191
:1017700022741091237486E595E0F80109954EECEA
:1017800053E760E070E0CA010E94BF0C80912474AE
:10179000909125748A839B838DE495E0EA81FB8197
:1017A0000995809134288115A1F00E94570B0E9461
:1017B000AD0C8FE395E0F80109954EEC53E760E03E
:1017C00070E0CA010E94BF0C8EE295E0EA81FB81C5
:1017D00009952091D628211581F18091D52895E091
:1017E000899FF0011124EB5CF74D90819983C180B2
:1017F000D280E380F48001968F718093D5282150A8
:101800002093D6280E94AD0C85EE94E0F80109954E
:101810004EEC53E7B701CA010E94BF0C8CED94E077
:10182000EA81FB810995E114F104D1F5E090D92812
:10183000F090DA28E114F10429F50E94AD0C80E261
:1018400095E0F80109954EEC53E760E070E0CA01BD
:101850000E94BF0C8EE095E0EA81FB8109958091A2
:1018600034289091D628890F9927991F0F900F90AF
:101870000F90DF91CF911F910F91FF90EF90DF902C
:10188000CF9008958091342881110E94570BA601B2
:101890006981C7010E94730AF701E080F180CACF15
:1018A000F981F13819F481E0F7018487A601698193
:1018B000C7010E94730AC1CFCF93DF93EC018881E7
:1018C0009981009719F4DF91CF910895229660E0F5
:1018D00070E00E94CC0AF3CFEF92FF920F931F9318
:1018E000CF93DF93CDB7DEB76097CDBFDEBFBE012C
:1018F000615F7F4FCE010B960E949D106B857C85AA
:101900008D859E850E94F1177B018C016F857889FA
:1019100080E090E00E94F11720E030E04AE754E4D4
:101920000E9449179701A8010E94D8169E012F5FB7
:101930003F4F43E00E944E0EE0911E74F0911F74E1
:10194000CE01019609956096CDBFDEBFDF91CF91A4
:101950001F910F91FF90EF900895CF93DF93C09167
:101960002274D091237489E396E0FE0109950E94C8
:101970006C0C85E396E0FE01DF91CF9109940F9303
:101980001F93CF93DF9300D000D0CDB7DEB78B018C
:1019900049835A8320911E7430911F742B833C839A
:1019A000F90109950115110581F08BED93E7EB81A4
:1019B000FC810995F80182819381EB81FC81099575
:1019C0008DED93E7EB81FC81099589819A81EB810B
:1019D000FC812496CDBFDEBFDF91CF911F910F9187
:1019E0000994CF93DF93CDB7DEB72A97CDBFDEBF83
:1019F000BE016F5F7F4F0E94DC0DE0912074F0917B
:101A00002174CE01019609952A96CDBFDEBFDF91E4
:101A1000CF910895CF93DF93CDB7DEB76497CDBF55
:101A2000DEBFAE014F5F5F4F0E940C0EE0911E744F
:101A3000F0911F74CE01019609956496CDBFDEBF6B
:101A4000DF91CF910895CF93DF93CDB7DEB7649741
:101A5000CDBFDEBFAE014F5F5F4F0E940C0EE09125
:101A60002074F0912174CE01019609956496CDBF42
:101A7000DEBFDF91CF910895CF93DF93CDB7DEB76F
:101A80006497CDBFDEBF9E012F5F3F4F43E00E94B2
:101A90004E0EE0912074F0912174CE0101960995CB
:101AA0006496CDBFDEBFDF91CF910895FC01208504
:101AB0003185828193812817390709F1A081B1818D
:101AC00084819581A80FB91F6C93848195810196BB
:101AD000628173810E9410198483958320E00FB680
:101AE00007FE02C0F89421E08085918501968087E9
:101AF0009187211102C081E008957894FCCF80E0A5
:101B00000895FC01808591852FEF892BE1F0868176
:101B10009781A081B181A80FB91F2C910196628194
:101B200073810E9410198683978330E00FB607FEF9
:101B300002C0F89431E08085918501978087918774
:101B4000311509F07894822F0895FC0180859185E4
:101B50000895FC0180E00FB607FE02C0F89481E012
:101B6000148215821682178210861186811509F05B
:101B700078940895FC0160837183428353830C94AD
:101B8000A90DCF93DF939B01FC01DC01A60FB71FCA
:101B900080E090E021503109821793071CF0DF911B
:101BA000CF91089541915E91BF0161507109EB01A0
:101BB00058834C930196EECF9B01009729F480E364
:101BC000FB018083118208952CF5919581959109EF
:101BD00041E0E0E06AE070E00E942419D901AE0F14
:101BE000B11D805D8C93CB015E2FEF5F009791F765
:101BF000411539F0E20FF32FF11D8DE28083E2E011
:101C0000E50F6E2F70E0E20FF32FF11D1082C90176
:101C10000C94C10D40E0DDCF0F931F93CF93DF9362
:101C2000EA01611571058105910541F480E388831E
:101C30001982DF91CF911F910F9108956CF50E9449
:101C4000711911E000E02AE030E040E050E00E942D
:101C50005A19FE01E00FF11D605D6083B901CA01F0
:101C6000202F0F5F00977040604069F7111539F021
:101C7000FE01E00FF11D8DE2808302E0020F602F74
:101C800070E0FE01E00FF11D1082CE01DF91CF91D7
:101C90001F910F910C94C10D10E0D4CF6F927F92E1
:101CA0008F929F92AF92BF92CF92DF92EF92FF926C
:101CB0000F931F93CF93DF936B017C01642EE90197
:101CC000742E8BE0481710F08AE0782E40E050E048
:101CD0009A01B601C7010E94441787FF06C0F7FAB0
:101CE000F094F7F8F0948DE28993611481F084E028
:101CF000789EF0011124E052FC482081318142811C
:101D00005381B601C7010E94D8166B017C01B60150
:101D1000C7010E94BB174B015C0181149104A1040F
:101D2000B10409F04CC080E3FE0181938F0161147E
:101D3000A9F1B401C5010E94F3179B01AC01B601E2
:101D4000C7010E94D716E62FE8012EE229938E01E3
:101D5000B72CBA9420E030E040E251E4CE2ED72EEA
:101D6000B6010E94A3186B017C010E94C217F80102
:101D70000F5F1F4F80E3860F808370E080E090E06C
:101D80000E94F3179B01AC01B601C7010E94D71650
:101D9000E62FB110DECF8E01070D111DF801108264
:101DA000DF91CF911F910F91FF90EF90DF90CF9037
:101DB000BF90AF909F908F907F906F9008958E010D
:101DC0002AE030E040E050E00E945A19F8010F5F2D
:101DD0001F4F605D6083B901CA0100977040604089
:101DE00079F7F801CE17DF0708F0A1CF829198812B
:101DF00090838993F7CFCF93DF9300D000D0CDB7F6
:101E0000DEB78091700081608093700019821A8221
:101E10001B821C8289819A81AB81BC81803197426F
:101E2000A105B10530F188ED84BF1092600084BF38
:101E30001092610081E0809362000E94AD0CE091FD
:101E40002274F09123748BE697E009954EEC53E7EA
:101E500060E070E0CA010E94BF0CE0912474F09130
:101E6000257487E397E02496CDBFDEBFDF91CF9145
:101E7000099489819A81AB81BC810196A11DB11D14
:101E800089839A83AB83BC83C5CF0F931F93CF9372
:101E9000DF930E94FB0E809141018111FCCF1092D3
:101EA000470180E090E280934A0190934B018FEFCD
:101EB0009FEF80934C0190934D0181E08093450109
:101EC0008FEF8093430183E08093420181E8809308
:101ED0004001809141018111FCCF0E94AD0C009125
:101EE00022741091237485E297E0F80109954EEC75
:101EF00053E760E070E0CA010E94BF0CC0912474F7
:101F0000D091257484EF96E0FE01099580915000F0
:101F10008160809350000E94AD0C82EE96E0F80143
:101F200009954EEC53E760E070E0CA010E94BF0CD7
:101F30008DEC96E0FE01099588ED84BF88E88093DA
:101F400000010E94AD0C8BEB96E0F80109954EEC78
:101F500053E760E070E0CA010E94BF0C83E996E09D
:101F6000FE0109957894DF91CF911F910F9108950B
:101F7000A8950E94AD0CE0912274F091237481E841
:101F800096E009954EEC53E760E070E0CA010E94CC
:101F9000BF0CE0912474F091257482E796E00994D7
:101FA0000F931F93CF93DF930E94AD0C0091227487
:101FB0001091237480E696E0F80109954EEC53E702
:101FC00060E070E0CA010E94BF0CC0912474D091FF
:101FD000257487E596E0FE01099588950E94AD0C71
:101FE00085E496E0F80109954EEC53E760E070E077
:101FF000CA010E94BF0C8CE396E0FE01DF91CF91F5
:102000001F910F9109941F920F920FB60F921124F6
:102010002F933F934F935F936F937F938F939F93F0
:10202000AF93BF93EF93FF938091430180FF4AC02A
:1020300081E0809343018091DB289091DC288650D9
:102040009F4F8093DB289093DC288091DB28909130
:10205000DC28883E9340E8F08091DB289091DC28D2
:10206000885E93408093DB289093DC288091DD2864
:102070009091DE28A091DF28B091E0280196A11D63
:10208000B11D8093DD289093DE28A093DF28B093C4
:10209000E0280E94AD0CE0912274F091237486EE4A
:1020A00098E009954EEC53E760E070E0CA010E94A9
:1020B000BF0CE0912474F091257487EC98E00995A9
:1020C0000E94A6058091430181FF26C082E0809393
:1020D0004301809141018111FCCF8FEF9FEF8093ED
:1020E0004C0190934D010E94AD0CE0912274F0914F
:1020F000237488EB98E009954EEC53E760E070E0BC
:10210000CA010E94BF0CE0912474F091257488E903
:1021100098E009950E94A605FF91EF91BF91AF91BC
:102120009F918F917F916F915F914F913F912F91EF
:102130000F900FBE0F901F9018958F929F92AF92A5
:10214000BF92CF92DF92EF92FF920F931F93CF93A4
:10215000DF9300D000D000D0CDB7DEB789839A835B
:102160006B837C838AE0C090DD28D090DE28E090ED
:10217000DF28F090E0282091DB283091DC282D83A7
:102180003E8300914801109149018090DD28909094
:10219000DE28A090DF28B090E0284091DB28509105
:1021A000DC2820914801309149018150D1F50E94ED
:1021B000AD0CE0912274F091237489E898E00995C0
:1021C0004EEC53E760E070E0CA010E94BF0CE09162
:1021D0002474F091257480E698E00995E981FA81EC
:1021E000C082D182E282F382C80161E270E00E9483
:1021F00010192D813E81620F731FEB81FC8160837A
:1022000071832696CDBFDEBFDF91CF911F910F91D5
:10221000FF90EF90DF90CF90BF90AF909F908F9006
:102220000895C814D904EA04FB0409F09CCF6D8119
:102230007E816417750709F096CF2017310708F4DF
:1022400092CFCCCF0F931F93CF93DF932091DB28B6
:102250003091DC284091DB285091DC282417350789
:10226000A9F700912274109123742817390708F0F8
:1022700099C0EC01C21BD30BCE010197893F910598
:1022800008F078C021E22C9FC0012D9F900D1124F1
:1022900020914801309149012817390720F1809198
:1022A00041018111FCCF8FEF9FEF80934C01909300
:1022B0004D010E94AD0C81E598E0F80109954EECC6
:1022C00053E760E070E0CA010E94BF0CE091247403
:1022D000F091257488E398E00995DF91CF911F91E3
:1022E0000F910C94A605209141012111FCCF809300
:1022F0004C0190934D01209141012111FCCF20917F
:1023000048013091490128173907D0F08FEF9FEF2E
:1023100080934C0190934D010E94AD0C89E298E0AE
:10232000F80109954EEC53E760E070E0CA010E94A5
:10233000BF0CE0912474F091257480E198E0CCCF3B
:102340000E94AD0C81E098E0F80109954EEC53E74E
:1023500060E070E0CA010E94BF0C83ED97E0F801D5
:102360000995BE0180E090E0DF91CF911F910F9120
:102370000C94230D0E94AD0C84EC97E0F8010995B4
:102380004EEC53E760E070E0CA010E94BF0CE091A0
:102390002474F09125748CEA97E0DF91CF911F911E
:1023A0000F9109940E94AD0C8DE997E0F801099511
:1023B0004EEC53E760E070E0CA010E94BF0CE09170
:1023C0002474F09125748DE797E086CF633008F090
:1023D0009AC2382F369536953695E82FE77081E00A
:1023E0000E2E01C0880F0A94EAF7613009F04EC042
:1023F000333059F178F43130E9F0323081F48093A0
:102400004104E150E73008F0A0C1F0E0EF57F64E8C
:102410000C947919343021F1353069F108958093A5
:102420000104E150E73008F086C1F0E0E857F64ECD
:102430000C94791980932104E150E73008F080C1B1
:10244000F0E0E157F64E0C94791980936104E15065
:10245000E73008F07FC1F0E0EA56F64E0C947919A7
:1024600080938104E150E73008F079C1F0E0E35651
:10247000F64E0C9479198093A104E150E73008F0EE
:1024800073C1F0E0EC55F64E0C9479193330A1F19C
:10249000A0F42FEF2E0F313011F1323099F48093E8
:1024A0004204623009F0ADCF273008F056C0E22F69
:1024B000F0E0E555F64E0C947919343051F1353091
:1024C000A9F1089580930204623009F0AACF273061
:1024D000D0F5E22FF0E0EE54F64E0C94791980938B
:1024E0002204623009F0A8CF273090F5E22FF0E007
:1024F000E754F64E0C94791980936204623009F027
:10250000A6CFE150E73070F5F0E0E054F64E0C94C1
:10251000791980938204623009F0A4CFE150E7304A
:1025200030F5F0E0E953F64E0C9479198093A2044B
:10253000623009F0A2CFE150E730F0F4F0E0E2536E
:10254000F64E0C94791980911004886080931004E1
:1025500080913004886080933004809150048860BA
:1025600080935004809170048860809370048091FF
:1025700090048860809390048091B0048860809378
:10258000B0040895809111048860809311048091B3
:102590003104886080933104809151048860809375
:1025A000510480917104886080937104809191043A
:1025B0008860809391048091B10488608093B10415
:1025C00008958091120488608093120480913204EF
:1025D0008860809332048091520488608093520412
:1025E0008091720488608093720480919204886064
:1025F000809392048091B20488608093B20408951D
:102600008091130488608093130480913304886060
:1026100080933304809153048860809353048091A5
:10262000730488608093730480919304886080931E
:1026300093048091B30488608093B30408958091DB
:10264000140488608093140480913404886080931B
:1026500034048091540488608093540480917404FD
:1026600088608093740480919404886080939404BB
:102670008091B40488608093B40408958091150417
:1026800088608093150480913504886080933504B8
:10269000809155048860809355048091750488600A
:1026A000809375048091950488608093950480914F
:1026B000B50488608093B5040895809116048860FD
:1026C000809316048091360488608093360480914C
:1026D00056048860809356048091760488608093C5
:1026E0007604809196048860809396048091B60465
:1026F00088608093B6040895809117048860809361
:1027000017048091370488608093370480915704C0
:102710008860809357048091770488608093770461
:10272000809197048860809397048091B7048860B3
:102730008093B704089580911004877F80931004DC
:1027400080913004877F8093300480915004877F8C
:102750008093500480917004877F809370048091EF
:102760009004877F809390048091B004877F07CF87
:1027700080911104877F8093110480913104877FB9
:102780008093310480915104877F8093510480911C
:102790007104877F8093710480919104877F809377
:1027A00091048091B104877F09CF80911204877FC3
:1027B0008093120480913204877F80933204809149
:1027C0005204877F8093520480917204877F8093A4
:1027D000720480919204877F809392048091B20466
:1027E000877F0BCF80911304877F809313048091A0
:1027F0003304877F8093330480915304877F8093D1
:10280000530480917304877F8093730480919304B1
:10281000877F809393048091B304877F0DCF80914D
:102820001404877F8093140480913404877F8093FD
:10283000340480915404877F8093540480917404FD
:10284000877F8093740480919404877F809394049D
:102850008091B404877F0FCF80911504877F809388
:10286000150480913504877F809335048091550449
:10287000877F8093550480917504877F80937504CA
:1028800080919504877F809395048091B504877F1C
:1028900011CF80911604877F8093160480913604AF
:1028A000877F8093360480915604877F80935604F7
:1028B00080917604877F8093760480919604877F49
:1028C000809396048091B604877F13CF809117047C
:1028D000877F8093170480913704877F8093370424
:1028E00080915704877F8093570480917704877F76
:1028F0008093770480919704877F809397048091D9
:10290000B704877F15CF0895633008F068C0482F5B
:10291000469546954695877021E030E0F90101C063
:10292000EE0F8A95EAF76130F1F4433099F038F40C
:10293000413069F0423041F4E09345040895443059
:1029400061F0453069F00895E09305040895E0933F
:1029500025040895E09365040895E093850408959F
:10296000E093A5040895F0F4433099F038F4413031
:1029700069F0423041F4E09346040895443061F038
:10298000453069F00895E09306040895E093260425
:102990000895E09366040895E09386040895E09313
:1029A000A6040895433099F038F4413069F042307C
:1029B00041F4E09347040895443061F0453069F0F4
:1029C0000895E09307040895E09327040895E093A1
:1029D00067040895E09387040895E093A704089599
:1029E000982F969596959695282F277041E0022E60
:1029F00001C0440F0A94EAF79330D9F038F49130CB
:102A0000A9F0923049F48091480408C09430A1F0B4
:102A10009530A9F080E0089580910804842390E027
:102A200002C0959587952A95E2F70895809128042C
:102A3000F5CF80916804F2CF80918804EFCF809128
:102A4000A804ECCF9091040895FFFCCF8093020876
:102A50000895CF93DF93EC018881811103C0DF914A
:102A6000CF91089521960E942215F6CF0E94291534
:102A70008DE00E9422158AE00C942215CF93DF93FB
:102A8000EC01FE018491811103C0DF91CF91089583
:102A9000FE0184910E9422152196F3CF0E943E15DB
:102AA0008DE00E9422158AE00C9422150F931F934B
:102AB000CF93DF93EC018C01060F171FC017D107CE
:102AC00029F4DF91CF911F910F91089589910E9470
:102AD0002215F4CF90910408907681E0911101C005
:102AE00080E0089581EE98E20C94A90DCF93DF93D6
:102AF000E0E0F8E0158216821782C0910C74D09144
:102B00000D7460E081E0FE01099581EE98E20E947B
:102B1000A90D60E080E0FE01DF91CF91099481EE84
:102B200098E20C94810D81EE98E20C94A50D4F92E1
:102B30005F926F927F928F929F92AF92BF92CF924D
:102B4000DF92EF92FF92CF93DF93CDB7DEB7289756
:102B5000CDBFDEBF69837A838B839C834D83C09016
:102B60000C74D0900D7461E080E0F601099560E08E
:102B700081E0F601099580E88093050840E850E07F
:102B80006BEE78E281EE98E20E94BA0D8D8182951B
:102B90008F709AEF980F8550933008F080E09D81F8
:102BA000969596959370913009F4C5C0923009F4CA
:102BB000C4C09D819370923009F4886080930708A7
:102BC00069817A818B819C810E94F1176D837E835C
:102BD0008F83988720E030E040E851E40E94A318FA
:102BE0009B01AC0160E876E988E99EE40E94491700
:102BF00020E030E040E05FE30E94D8166B017C01EA
:102C00000E94C21769837A838B839C8329813A81CE
:102C1000B90180E090E00E94F1179B01AC01B60180
:102C2000C7010E94D7169601A7010E94491720E00C
:102C300030E048EC52E40E94A3186B017C0140E0B4
:102C400050E09A010E94441787FF04C0F7FAF094FD
:102C5000F7F8F09420E030E040E051E46D817E81AF
:102C60008F8198850E94A3189B01AC0160E876E9EA
:102C700088E99EE40E94491720E030E040E05FE3ED
:102C80000E94D8164B015C010E94C2172B0180E004
:102C900090E00E94F1179B01AC01B401C5010E94B4
:102CA000D7169401A5010E94491720E030E048ECB6
:102CB00052E40E94A3184B015C0140E050E09A01ED
:102CC0000E94441787FF04C0B7FAB094B7F8B094D5
:102CD00020E030E040E05FE3B601C7010E94441706
:102CE00087FD08C09401A501B601C7010E944417E1
:102CF00018162CF189819A8180930808909309080D
:102D000090EC998381EE98E20E94A90DF981F093ED
:102D100006082896CDBFDEBFDF91CF91FF90EF90E0
:102D2000DF90CF90BF90AF909F908F907F906F90EB
:102D30005F904F90089580633CCF80623ACF40927D
:102D4000080850920908E2ECE983DCCF1F920F9249
:102D50000FB60F9211242F933F934F935F936F936E
:102D60007F938F939F93AF93BF93CF93EF93FF93F3
:102D700080910108C0910008867439F46C2F81EEAF
:102D800098E20E94560DC0930208FF91EF91CF91F7
:102D9000BF91AF919F918F917F916F915F914F9173
:102DA0003F912F910F900FBE0F901F901895505884
:102DB000BB27AA270E94EF160C9469180E945B1883
:102DC00038F00E94621820F039F49F3F19F426F47D
:102DD0000C9458180EF4E095E7FB0C945218E92F68
:102DE0000E947A1858F3BA17620773078407950789
:102DF00020F079F4A6F50C949C180EF4E0950B2EB7
:102E0000BA2FA02D0B01B90190010C01CA01A0013C
:102E10001124FF27591B99F0593F50F4503E68F197
:102E20001A16F040A22F232F342F4427585FF3CFD8
:102E3000469537952795A795F0405395C9F77EF4A9
:102E40001F16BA0B620B730B840BBAF09150A1F0F2
:102E5000FF0FBB1F661F771F881FC2F70EC0BA0F78
:102E6000621F731F841F48F4879577956795B79500
:102E7000F7959E3F08F0B0CF9395880F08F09927FB
:102E8000EE0F9795879508950E942E1808F481E01B
:102E900008950E945D170C9469180E94621858F0FA
:102EA0000E945B1840F029F45F3F29F00C945218FF
:102EB00051110C949D180C9458180E947A1868F3BC
:102EC0009923B1F3552391F3951B550BBB27AA27E3
:102ED00062177307840738F09F5F5F4F220F331F1D
:102EE000441FAA1FA9F335D00E2E3AF0E0E832D0E5
:102EF00091505040E695001CCAF72BD0FE2F29D0E8
:102F0000660F771F881FBB1F261737074807AB07B9
:102F1000B0E809F0BB0B802DBF01FF2793585F4F2E
:102F20003AF09E3F510578F00C9452180C949D187D
:102F30005F3FE4F3983ED4F3869577956795B79510
:102F4000F7959F5FC9F7880F911D9695879597F91B
:102F50000895E1E0660F771F881FBB1F6217730794
:102F60008407BA0720F0621B730B840BBA0BEE1FA9
:102F700088F7E09508950E94C2176894B1110C94E7
:102F80009D1808950E94821888F09F5798F0B92FD5
:102F90009927B751B0F0E1F0660F771F881F991F8E
:102FA0001AF0BA95C9F714C0B13091F00E949C187C
:102FB000B1E008950C949C18672F782F8827B85F8C
:102FC00039F0B93FCCF3869577956795B395D9F7E6
:102FD0003EF490958095709561957F4F8F4F9F4FF0
:102FE0000895E89409C097FB3EF4909580957095FC
:102FF00061957F4F8F4F9F4F9923A9F0F92F96E945
:10300000BB279395F695879577956795B795F111B9
:10301000F8CFFAF4BB0F11F460FF1BC06F5F7F4F56
:103020008F4F9F4F16C0882311F096E911C0772368
:1030300021F09EE8872F762F05C0662371F096E871
:10304000862F70E060E02AF09A95660F771F881F40
:10305000DAF7880F9695879597F90895990F0008E4
:10306000550FAA0BE0E8FEEF16161706E807F9075A
:10307000C0F012161306E407F50798F0621B730BF5
:10308000840B950B39F40A2661F0232B242B252B76
:1030900021F408950A2609F4A140A6958FEF811D19
:1030A000811D089597F99F6780E870E060E00895BA
:1030B0009FEF80EC089500240A9416161706180650
:1030C0000906089500240A9412161306140605062C
:1030D0000895092E0394000C11F4882352F0BB0FBD
:1030E00040F4BF2B11F460FF04C06F5F7F4F8F4F20
:1030F0009F4F089557FD9058440F551F59F05F3F5B
:1031000071F04795880F97FB991F61F09F3F79F009
:1031100087950895121613061406551FF2CF46958B
:10312000F1DF08C0161617061806991FF1CF86950D
:103130007105610508940895E894BB2766277727F1
:10314000CB0197F908950E94B6180C9469180E9453
:103150005B1838F00E94621820F0952311F00C944F
:1031600052180C94581811240C949D180E947A1827
:1031700070F3959FC1F3950F50E0551F629FF001CA
:10318000729FBB27F00DB11D639FAA27F00DB11DE3
:10319000AA1F649F6627B00DA11D661F829F22276C
:1031A000B00DA11D621F739FB00DA11D621F839FF3
:1031B000A00D611D221F749F3327A00D611D231FC9
:1031C000849F600D211D822F762F6A2F11249F5717
:1031D00050409AF0F1F088234AF0EE0FFF1FBB1F1A
:1031E000661F771F881F91505040A9F79E3F5105D9
:1031F00080F00C9452180C949D185F3FE4F3983EB5
:10320000D4F3869577956795B795F795E7959F5F82
:10321000C1F7FE2B880F911D9695879597F9089514
:10322000AA1BBB1B51E107C0AA1FBB1FA617B707EC
:1032300010F0A61BB70B881F991F5A95A9F7809508
:103240009095BC01CD01089597FB072E16F40094CC
:1032500007D077FD09D00E94101907FC05D03EF475
:10326000909581959F4F0895709561957F4F089532
:10327000A1E21A2EAA1BBB1BFD010DC0AA1FBB1F7A
:10328000EE1FFF1FA217B307E407F50720F0A21BEC
:10329000B30BE40BF50B661F771F881F991F1A9459
:1032A00069F760957095809590959B01AC01BD0183
:1032B000CF010895052E97FB1EF400940E9471190A
:1032C00057FD07D00E94381907FC03D04EF40C9428
:1032D000711950954095309521953F4F4F4F5F4F55
:1032E000089590958095709561957F4F8F4F9F4F72
:1032F0000895EE0FFF1F0590F491E02D0994F894C6
:10330000FFCFC213DF13FC131914361453147014B7
:10331000B813D513F2130F142C1449146614BD13EB
:10332000DA13F713141431144E146B14C713E41387
:1033300001141E143B1458147514CC13E91306140D
:10334000231440145D147A14D113EE130B142814B3
:10335000451462147F14CC12EB120A13291348137C
:1033600067138613C212E11200131F133E135D137D
:103370007C13C712E612051324134313621381133F
:10338000D112F0120F132E134D136C138B13D61290
:10339000F51214133313521371139013DB12FA1234
:0A33A0001913381357137613951311
:1033AA004C4544007265706C790068656C6C6F00FE
:1033BA002C204D696C6C697365636F6E6473203D74
:1033CA0020002C20005054494D4552205441534B63
:1033DA00007B007D20000000003FCDCC4C3D0AD789
:1033EA00A33B6F12033A17B75138ACC5A736BD379E
:1033FA00063595BF563377CCAB315F700930FFE69F
:10340A005B2EE6118414F0149715761593158F1513
:10341A0072152215291536153E154E1556156A15BB
:10342A00042800000000AA739A04000000000000AB
:10343A0000000000000000000000000000CF7377C9
:10344A00080000000000000000000000000000006A
:02345A00000070
:00000001FF
