:100000000C9434000C9451000C9451000C94510049
:100010000C9451000C9451000C9451000C9451001C
:100020000C9451000C9451000C9451000C94331911
:100030000C947E190C9451000C9451000C945100B6
:100040000C9451000C9451000C942C1D0C945100F4
:100050000C9451000C9451000C9451000C945100DC
:100060000C9451000C94510011241FBECFEFD8E026
:10007000DEBFCDBF12E0A0E0B1E0E8E0F0E402C0F6
:1000800005900D92A031B107D9F725E0A0E1B2E0CB
:1000900001C01D92A236B207E1F70E94AC010C9498
:1000A00002200C940000FF920F931F93CF93DF93D5
:1000B00000D0CDB7DEB7E091B502F091B602248151
:1000C00035812332310509F4C6C0E8F52C313105FC
:1000D00009F480C070F4232B09F48DC015821482BA
:1000E00083E00F900F90DF91CF911F910F91FF90C0
:1000F00008952D31310509F493C02F31310571F781
:100100008D3809F065C040E06FE771E08FE093E063
:100110000E94B210E0910502F091060289E391E09D
:10012000099520E040E050E060E070E48091B50285
:100130009091B6020E941902E091B502F091B602C8
:1001400083E290E06AC02E32310509F43EC0B0F57A
:100150002932310519F68D38D9F59E012F5F3F4FB1
:100160004DE150E062E671E08EE395E00E9490126E
:100170008EE395E00E949514F82E009105021091EF
:10018000060281118FC089819A814D9709F08AC03A
:1001900080E891E0F801099520E040E050E060E05F
:1001A00070E48091B5029091B6020E941902E0912C
:1001B000B502F091B6028EE290E02FC026333105F1
:1001C00021F02034310509F089CF8D3809F486CF2C
:1001D00081E087CF8538E1F720E040E050E060E043
:1001E00070E4CF010E941902E091B502F091B602CD
:1001F0008DE190E012C0CF010E94130250E040E078
:1002000065E88091B5029091B6020E947904E09170
:10021000B502F091B6028CE190E095838483D8CF4B
:100220008D38B1F6E0910502F091060280E391E08D
:10023000099520E040E050E060E070E48091B50274
:100240009091B6020E941902E091B502F091B602B7
:100250008FE190E0E2CF8D3809F0BACF4AE063E455
:1002600071E08EE395E00E94F310F82E00910502F4
:100270001091060281113EC08FE491E0F8010995CA
:1002800020E040E050E060E070E48091B5029091A1
:10029000B6020E941902E091B502F091B60289E21D
:1002A00090E0BBCF84E991E0F8010995E091030269
:1002B000F091040288EA91E00995E0910102F09141
:1002C000020280E38F0D09958FE791E0F80109950F
:1002D00020E040E050E060E070E48091B502909151
:1002E000B6020E941902E091B502F091B60286E3CF
:1002F00090E093CF81EB91E0F8010995E091030242
:10030000F091040288EA91E00995E0910102F091F0
:10031000020280E38F0D09958FE791E0F8010995BE
:1003200020E040E050E060E070E48091B502909100
:10033000B6020E941902E091B502F091B60280E483
:1003400090E06BCFE091F701F091F80141E860E8AF
:1003500075E280E090E009940E94A2010E94F918E1
:100360000E9471030E94C80170E060E089E191E0A1
:100370000E94F00380E091E00E94A2040E941E040B
:10038000C82F0E942919C111F9CF0E942B19F6CF4D
:100390001092110210921002089589E191E00C94DC
:1003A00096040F931F93CF93DF9300D000D000D01B
:1003B000CDB7DEB78C0119821A821B821C821E8285
:1003C0001D82BE016B5F7F4FCE0101960E94A7196F
:1003D000F801468557856089718989819A81AB8149
:1003E000BC81481759076A077B07B9F4828993894A
:1003F0002D813E812817390768F00E94CD0126968D
:100400000FB6F894DEBF0FBECDBFDF91CF911F9125
:100410000F9108950E94F419F2CF481759076A07FF
:100420007B0768F7EACFBC016E5E7F4F0E960C9497
:10043000A7198F929F92AF92BF92CF92DF92EF92C5
:10044000FF920F931F93CF93DF9300D000D000D083
:10045000CDB7DEB78C016A017B01213009F08DC078
:10046000FC0186859785A089B18989839A83AB83AE
:10047000BC83828993899E838D832FE632E143E892
:100480005AE3C701B6010E94C51D87FF08C08FE669
:10049000C82E82E1D82E83E8E82E8AE3F82E20E0E9
:1004A00030E04AE754E4C701B6010E941D1F0E94D4
:1004B0003C1E28EE33E040E050E00E949E1FED819C
:1004C000FE81CF01860F971FC980DA80EB80FC8008
:1004D000C20ED31EE41EF51E68EE73E00E948A1F52
:1004E00046015701860E971EA11CB11CB501A4013F
:1004F000D8011E964D935D936D937C9351975396BF
:100500009C938E935297E0911002F09111023097D4
:10051000A9F0C684D784E088F1884C155D056E0586
:100520007F0560F04C155D056E057F0509F04DC037
:10053000228933898217930708F047C0D8011D9696
:10054000FC93EE931C971093110200931002C801C4
:100550000E94D10126960FB6F894DEBF0FBECDBF24
:10056000DF91CF911F910F91FF90EF90DF90CF908F
:10057000BF90AF909F908F900895BE016B5F7F4FAB
:10058000CE0101960E94A71978CFD5011E96CD9075
:10059000DD90ED90FC9051974C155D056E057F0543
:1005A00040F4D8011D96BC92AE921C971587048723
:1005B000D1CF4C155D056E057F0531F452962D9116
:1005C0003C918217930768F3F501A484B584A114C4
:1005D000B104D9F6D8011D961C921E921C97E6CF45
:1005E0000F931F93CF93DF9300D000D000D0CDB7EF
:1005F000DEB78C01BE016B5F7F4FCE0101960E947A
:10060000A719F801468557856089718989819A8182
:10061000AB81BC81481759076A077B0778F04817F8
:1006200059076A077B0741F481E0428953892D818C
:100630003E812417350718F480E001C081E026963A
:100640000FB6F894DEBF0FBECDBFDF91CF911F91E3
:100650000F910895E091B502F091B60224813581A1
:100660002115310559F023363105B9F5823871F479
:100670008091100290911102009751F4E091B5021F
:10068000F091B60283E690E09583848381E008953B
:100690000E94F0028823C1F050E040E06DE88091B4
:1006A0001002909111020E947904892B59F4E09173
:1006B0001002F09111028485958590931102809328
:1006C0001002D6CF0E94CD018091100290911102AC
:1006D0000097A1F20E94D101D1CF1582148283E04C
:1006E00008951092B3021092B4021092B8021092C0
:1006F000B7021092B6021092B5020895A091B70207
:10070000B091B802FD01E817F90739F0309709F404
:1007100008950190F081E02DF6CF3097D9F08285D1
:1007200081111286EA17FB0799F4808191819093D9
:10073000B8028093B70208958D919C9111978E17FE
:100740009F0729F4808191818D939C930895DC010A
:10075000109791F708951F93CF93DF93DC011296C2
:10076000ED91FC913097C9F0162FEC019093B602F1
:100770008093B50282E08A875F834E83862F099536
:100780008250823010F0133831F4CE01DF91CF91D6
:100790001F910C947E0381E08A87DF91CF911F9196
:1007A00008951F93CF93DF9310921202C091B70266
:1007B000D091B80211E0209721F4DF91CF911F91E1
:1007C00008958B85882341F01A871B8650E040E00E
:1007D00062E8CE010E94AB030990D881C02DEBCF17
:1007E000CF93DF933091B7022091B802E32FF22F1D
:1007F000E817F907E1F03097E9F40097C1F0AB0191
:10080000FC01308321839093B8028093B70281E08A
:10081000828715821482C091B502D091B60261E838
:10082000CF010E94AB03D093B602C093B502DF9113
:10083000CF9108950190F081E02DDACFFF920F93D0
:100840001F93CF93DF938091120281110E94D103F5
:100850004091B402442309F43FC0E091B3022E2F2B
:1008600030E085E0E89FF0011124ED5EFD4FF0805F
:1008700001811281838194812F5F3F4F2F71332734
:100880002093B30241504093B402C091B702D0917B
:10089000B8020097F9F0E1E8FE1203C021E0FC0184
:1008A0002287FC01228520FF17C0A8016F2D0E941E
:1008B000AB0312C08091120281110E94D1038A857C
:1008C00080FF05C0A8016F2DCE010E94AB030990E7
:1008D000D881C02D209771F7909112028091B402B7
:1008E000890F9927991FDF91CF911F910F91FF9049
:1008F00008959C019091B4029032A9F0E091B30266
:10090000E90FEF7185E0E89FF0011124ED5EFD4FE6
:10091000608352834183348323839F5F9093B40227
:1009200090E080E0089581E090E00895009749F01C
:10093000FC0122852150223020F421E023872093DE
:1009400012020895CF93DF93EC018991999100975A
:1009500019F4DF91CF91089570E060E00E94F003F8
:10096000F4CF811102C00C94281681E00895811102
:1009700005C06AE082EE91E00C942B1681E00895A8
:100980000F931F93FB01BA01A9019801811105C0C2
:10099000CF011F910F910C941F1784E01F910F91AD
:1009A00008950F931F93FB01BA01A90198018111CA
:1009B00005C0CF011F910F910C94601784E01F9127
:1009C0000F910895962F811104C0BA01892F0C94BC
:1009D000C31784E00895FC016281738190E080E098
:1009E000982F872F762F66272181622B982F872FAC
:1009F000762F66272081622B08950F931F93FC01A9
:100A00009A01AB0122503109410951098389948926
:100A1000A589B6890297A109B109281739074A079C
:100A20005B0778F4A185B2850E94C01F07A110A5BD
:100A300021A532A5600F711F821F931F1F910F9177
:100A4000089560E070E0CB01F9CFCF93DF93EC0124
:100A5000E881F981309779F0DF019D012F5F3F4FE9
:100A60008C91813298F0D9018A33B9F7908180ED69
:100A7000890F8A3018F08FEF9FEF0AC03296AE17B9
:100A8000BF07C9F79033B9F7B983A88390E080E036
:100A9000DF91CF9108950F931F93CF93DF93EC01D4
:100AA0008B01892B59F489E030E020E0F801318393
:100AB0002083DF91CF911F910F910895E881F981F3
:100AC000309789F38081882371F32A813B81858166
:100AD00096812817390739F781810E94B10480FD7A
:100AE000E2CF2881398180E0E1CFFB01428D538D37
:100AF00070E060E0833059F484899589B0E0A0E02B
:100B0000DC0199278827482B592B6A2B7B2BCB019B
:100B1000BA010895FB01228F338FDC018C91833061
:100B200029F4CA01AA27BB27848B958B08958F923D
:100B30009F92AF92BF92EF92FF920F931F93CF932A
:100B4000DF93FC01238121110CC080E0DF91CF9164
:100B50001F910F91FF90EF90BF90AF909F908F905B
:100B60000895EC017C01FFE2EF0EF11C2BA53CA5E2
:100B70004DA55EA501E010E0B70189810E94D10476
:100B800081112AC01B820BA51CA52DA53EA58F890E
:100B9000988DA98DBA8D8F8C98A0A9A0BAA0B90103
:100BA000A801481959096A097B094A015B0188169D
:100BB0009906AA06BB0648F66A81623031F6A90199
:100BC0009801280F391F4A1F5B1F01E010E0B70191
:100BD00089810E94D104B9CF81E0B8CF8F929F92D2
:100BE000AF92BF92FF920F931F93CF93DF93EC01CD
:100BF0004A015B018BA59CA5ADA5BEA5F12C88156E
:100C00009905AA05BB05E1F0CE010E949705F82ED3
:100C1000811116C001E010E0A5019401BE01615DE3
:100C20007F4F89810E94C004882331F0FF24F39410
:100C300088248A94982C54018BA69CA6ADA6BEA6A7
:100C40008F2DDF91CF911F910F91FF90BF90AF90AB
:100C50009F908F9008950F931F93CF93DF93EC0194
:100C6000FC01E35DFD4F008111819FA59B3E21F0BA
:100C7000985E923008F04DC005352AEA120761F4FB
:100C800048E050E064EC71E0CE018F579F4F0E9426
:100C9000DA1F892B09F447C08AAD9BAD9C01215016
:100CA000310928233923232BA1F58115924089F599
:100CB0008CAD882371F190E09C0121503109822391
:100CC0009323892B31F58DAD9EAD892B11F18FAD1D
:100CD0008150990B0297E8F4FE01E05CFF4F8081A0
:100CE0009181892BB1F03296808191818038910574
:100CF00050F4CE01815B9F4F0E94EB04611571059A
:100D00008140910530F0CB5BDF4F88819981892B41
:100D100051F405351A4A51F083E090E0DF91CF910C
:100D20001F910F91089590E080E0F8CF82E090E06D
:100D3000F5CF2F923F924F925F926F927F928F9258
:100D40009F92AF92BF92CF92DF92EF92FF920F935A
:100D50001F93CF93DF9300D000D0CDB7DEB74230E2
:100D600051056105710508F4F8C0FC01C388D488F9
:100D7000E588F6884C155D056E057F0508F0EDC029
:100D8000280139016A017B019C838B838081823039
:100D900009F489C0833009F4A8C0813009F0DDC0AE
:100DA0005A01B694A794A40EB51EC501892F9927A0
:100DB0008695478D50A161A172A1480F591F611DF1
:100DC000711DCF010E94EE05182F81114DC08B813E
:100DD0009C818F969A83898315019FEF291A390A7E
:100DE000E1E0BE22E981FA81EA0DFB1D842D460176
:100DF000570121E082229924AA24BB24C0FE07C007
:100E000080818F7090E1499E90011124822B808314
:100E100081E0EB81FC818383478D50A161A172A1A8
:100E2000C101892F99278695480F591F611D711D92
:100E3000CF010E94EE05182F811116C0F1E03F226C
:100E4000E981FA81E20DF31D89288A288B2821F196
:100E500054E076946794579447945A95D1F740821A
:100E600081E0EB81FC818383812F0F900F900F90A5
:100E70000F90DF91CF911F910F91FF90EF90DF9036
:100E8000CF90BF90AF909F908F907F906F905F902A
:100E90004F903F902F9008950081007F252D2F7057
:100EA000422E402ADCCF77276F2D5E2D4D2DEB8112
:100EB000FC81878D90A1A1A1B2A1480F591F6A1F83
:100EC0007B1FCF010E94EE05182F8111CDCFEB8142
:100ED000FC81BF96CC0CDD1CE894C0F821E0D22246
:100EE000EC0DFD1D40825182BBCFEB81FC81878DD3
:100EF00090A1A1A1B2A127E0769567955795479556
:100F00002A95D1F7480F591F6A1F7B1FCF010E94F6
:100F1000EE05182F8111A8CF4B815C81415D5F4F99
:100F2000CC0CDD1CCC0CDD1CFCEFCF22F1E0DF2271
:100F3000C40ED51EC6010E94EB042FE07222662764
:100F400077278827907F462A572A682A792AF60128
:100F5000408251826282738283CF12E085CFAF924A
:100F6000BF92CF92DF92EF92FF920F931F93CF9396
:100F7000DF93423051056105710508F4A7C0FC01FB
:100F80000389148925893689401751076207730739
:100F900008F09CC06A017B01EC018081823009F479
:100FA00057C0833009F470C0813009F08FC08A01C6
:100FB00016950795040F151FC801892F9927869547
:100FC000478D50A161A172A1480F591F611D711D6C
:100FD000CF010E94EE05882371F06FEF7FEFCB0108
:100FE000DF91CF911F910F91FF90EF90DF90CF9005
:100FF000BF90AF9008955801FFEFAF1ABF0A11706C
:10100000FE01E00FF11F17A5C501892F99278695CD
:101010004F8D58A169A17AA1480F591F611D711DFB
:10102000CE010E94EE058111D8CF81E0B822CA0D11
:10103000DB1D6FA5762F612FC0FE08C0E4E076951A
:101040006795EA95E1F790E080E0CACF7F70FBCF2B
:1010500077276F2D5E2D4D2D878D90A1A1A1B2A177
:10106000480F591F6A1F7B1FCF010E94EE05811197
:10107000B4CFCC0CDD1CE894C0F8E1E0DE22CC0D4E
:10108000DD1D6FA578A9DFCF878D90A1A1A1B2A1A9
:1010900037E076956795579547953A95D1F7480F7C
:1010A000591F6A1F7B1FCF010E94EE05811195CF4A
:1010B000AF96C601880F991F880F991F8C7F91707A
:1010C0008C0F9D1F0E94EB049F708ACF61E070E03F
:1010D00080E090E085CF4F925F926F927F928F92E7
:1010E0009F92AF92BF92CF92DF92EF92FF920F93B7
:1010F0001F93CF93DF938C012A013B01FC01C08138
:10110000D181411451046104710409F58B849C84DC
:10111000AD84BE8481149104A104B10409F44DC0CE
:101120008B899C89AD89BE8988169906AA06BB065B
:1011300008F043C08F859889A989BA89892B8A2BA1
:101140008B2B09F03FC0C12CD12C760116C0CE01EB
:101150000E94AF076B017C01F2E0CF16D104E104DD
:10116000F10408F4ECC02FEFC216D206E206F20634
:10117000B9F4CC24CA94DC2C7601C701B601DF9106
:10118000CF911F910F91FF90EF90DF90CF90BF9084
:10119000AF909F908F907F906F905F904F90089549
:1011A0008B899C89AD89BE8953014201C816D90635
:1011B000EA06FB0608F0BECFE0CF812C912C54014B
:1011C0008394B8CF84149504A604B70409F041C0F1
:1011D000750164018FEFC81AD80AE80AF80A8B89EA
:1011E0009C89AD89BE89C816D906EA06FB0628F097
:1011F00022E0C22ED12CE12CF12CB701A601F8017E
:10120000808191810E94AF07613071058105910550
:1012100009F495C06F3FFFEF7F078F079F0709F421
:10122000A8CF672B682B692B09F44DC08B859C8553
:10123000AD85BE8582309105A105B10550F04B8981
:101240005C896D897E8984179507A607B70708F41E
:1012500067C0750164012FEFC21AD20AE20AF20ACE
:101260008B899C89AD89BE89C816D906EA06FB061A
:1012700060F082E088169104A104B10408F463CF01
:1012800092E0C92ED12CE12CF12CB701A601F80176
:10129000808191810E94AF076115710581059105DB
:1012A000B9F0613071058105910509F448C06F3FBF
:1012B0007F4F8F4F9F4F09F45CCFC814D904EA04C5
:1012C000FB0449F640CFC114D104E104F10409F252
:1012D0000FEF1FEF9801B701A601CE010E949906FA
:1012E00081112AC04114510461047104E1F4CB86D8
:1012F000DC86ED86FE868F859889A989BA894B8917
:101300005C896D897E8942505109610971094817CC
:1013100059076A077B07C0F48C8181608C832DCFCD
:101320004C015D0196CF97018601B301A201CE0168
:101330000E9499068823D9F2813009F41ACFC12C72
:10134000D12C7601C39419CF0197A109B1098F87D8
:10135000988BA98BBA8BE0CF4F925F926F927F925E
:10136000AF92BF92CF92DF92EF92FF920F931F93B3
:10137000CF93DF935C016A017B01B901A80122E0F0
:10138000C216D104E104F10408F475C0FC01C08167
:10139000D1818B899C89AD89BE89C816D906EA0698
:1013A000FB0608F068C0411551056105710541F063
:1013B0000FEF1FEF9801CE010E94990681110FC017
:1013C000B701A601F501808191810E94AF072B0131
:1013D0003C01411451046104710481F480E0DF9107
:1013E000CF911F910F91FF90EF90DF90CF90BF9022
:1013F000AF907F906F905F904F900895F1E04F16FF
:10140000510461047104B9F12FEF421652066206CD
:10141000720699F100E010E09801B701A601CE0133
:101420000E9499068111DBCF8F859889A989BA8995
:101430004B895C896D897E896A017B01E2E0CE1A65
:10144000D108E108F1088C159D05AE05BF0550F4E3
:101450000196A11DB11D8F87988BA98BBA8B8C81AA
:1014600081608C8373016201C416D506E606F70617
:1014700008F4A6CFB3CF82E0B2CF81E0B0CF8F9295
:101480009F92AF92BF92CF92DF92EF92FF920F9313
:101490001F93CF93DF93EC016A017B010E949705B4
:1014A000811144C0B701A601CE010E94FD044B0189
:1014B0005C018BA69CA6ADA6BEA66E012FE2C20E55
:1014C000D11C80E092E0F6019C0111922150304045
:1014D000E1F7F12CE12C89859A85E816F906A0F050
:1014E00081E029853A852E153F0509F480E0DF91DA
:1014F000CF911F910F91FF90EF90DF90CF90BF9011
:10150000AF909F908F90089501E010E0A5019401A5
:101510002E0D3F1D411D511DB60189810E94D10430
:101520008111DECF3FEFE31AF30AD5CF81E0DFCFA1
:101530004F925F926F927F92AF92BF92CF92DF9263
:10154000EF92FF920F931F93CF93DF93EC010881EB
:101550001981CE84DF84E888F98880E2C80ED11C26
:10156000E11CF11CC114D104E0E2EE06F10420F00C
:101570001E8A1F8A188E198E8E899F89A88DB98D13
:101580000097A105B10599F15B01B701A601517062
:1015900066277727452B462B472B09F0A0C00196DD
:1015A000A11DB11D8E8B9F8BA88FB98F4A895B8936
:1015B0006C897D89F8014115510561057105C9F4F2
:1015C00087819085B0E0A0E0B701A60135E076956F
:1015D0006795579547953A95D1F7481759076A0780
:1015E0007B0708F47CC01E8A1F8A188E198E84E03F
:1015F00023C0818592850197B0E0A0E026013701E4
:1016000029E076946794579447942A95D1F78421DA
:101610009521A621B721892B8A2B8B2B09F05FC03E
:10162000C8010E94AF072B013C01F2E04F165104A4
:101630006104710480F482E0DF91CF911F910F91DA
:10164000FF90EF90DF90CF90BF90AF907F906F9022
:101650005F904F9008958FEF4816580668067806F9
:1016600011F481E0E9CFF80183899489A589B689CD
:10167000481659066A067B0628F1AB2809F4B3CF51
:101680004A895B896C897D89CE010E946B082B0198
:101690003C0187E0411451046104710469F2F1E0F6
:1016A0004F1651046104710431F28FEF4816580649
:1016B00068067806B1F2B301A201C8010E943F0A90
:1016C0008111CFCF4A8A5B8A6C8A7D8AB301A201DD
:1016D000C8010E94FD046E8B7F8B888F998FCE8608
:1016E000DF86E88AF98A015D1F4FE1E0DE220C0DFA
:1016F0001D1D1B8F0A8F80E09FCF8F929F92AF920C
:10170000BF92CF92DF92EF92FF920F931F93CF93EE
:10171000DF938C01FC01C081D18116861786108A67
:10172000118AC680D780E084F184C114D104E10419
:10173000F104C1F58881833040F08BA19CA1ADA15B
:10174000BEA10097A105B10579F58F819885892BF8
:1017500071F482E0DF91CF911F910F91FF90EF9094
:10176000DF90CF90BF90AF909F908F9008958BA106
:101770009CA1ADA1BEA1F801868B978BA08FB18FE4
:10178000F801C28AD38AE48AF58A86899789A08D6E
:10179000B18D892B8A2B8B2BE1F2AF96D38FC28F21
:1017A00080E0D8CFD701C60189849A84B12CA12CBE
:1017B00029E0880C991CAA1CBB1C2A95D1F76C0146
:1017C0007D01B701A60181149104A104B10449F07F
:1017D000CE010E94FD04F801668B778B808F918F7C
:1017E000CFCFF801808191810E94AF076B017C010E
:1017F000FFEFCF16DF06EF06FF0689F082E0C8167E
:10180000D104E104F10408F4A4CF8B899C89AD894B
:10181000BE89C816D906EA06FB0698F29ACF81E07F
:1018200099CF0F931F93CF93DF93EC010881198118
:101830000E947D0B811137C04E895F89688D798D3B
:10184000C8010E94EE0581112EC0EA8DFB8D8081BA
:10185000853E09F54E895F89688D798DC8010E94A2
:10186000EE05811113C0EA8DFB8D90E2DF011D9220
:101870009A95E9F7AA8DBB8DFE017C969BE00190BD
:101880000D929A95E1F791E0F8019383DF91CF9162
:101890001F910F9108958823E9F261E070E0CE0175
:1018A0000E94980AC7CF843089F787E0EFCF2F9244
:1018B0003F924F925F926F927F928F929F92AF92E0
:1018C000BF92CF92DF92EF92FF920F931F93CF932D
:1018D000DF93FC0160807180FB016F0121912F3249
:1018E000E1F32C35D1F3FC011682178210861186A4
:1018F000F6012081203208F476C0EC015C01FCE1A5
:10190000AF0EB11C35E0332E23012FE2420E511CE5
:101910004BE050E060E270E0C5010E94F01F10E073
:1019200000E090E080E028E0822E912C7C01FFEF27
:10193000EF1AFF0AF601E80FF91F208020E22215B6
:1019400088F4EFE22E1619F0FCE52F1263C0F601C1
:10195000EE0DFF1D7F01EC18FD0881918F32D1F350
:101960008C35C1F3012B09F46EC08C8D853E09F4D2
:101970003C8ECE0CDF1C80E2821508F096C0F6018A
:101980008081813208F491C080E08FA3E880F980E3
:10199000CE010E947D0B182F81118AC04E895F896C
:1019A000688D798DC7010E94EE05182F811180C0C6
:1019B000EA8DFB8D8081882309F479C083858F733C
:1019C0008C83838583FD09C04BE050E0B501CF01D6
:1019D0000E94DA1F892B09F46BC070E060E0CE0131
:1019E0000E94980AD8CF20E8FC0127A3DF91CF916D
:1019F0001F910F91FF90EF90DF90CF90BF90AF902D
:101A00009F908F907F906F905F904F903F902F901E
:101A10000C947D0B2EE2221609F47AC008151905E4
:101A200090F4E0E8E21538F4FFE9F21570F420E2F2
:101A3000220D2D3150F0622D70E08DEC91E00E946E
:101A4000F71F892B29F116E03AC09C012E5F3F4F0A
:101A5000F601EE0DFF1D80818034A8F38F3720F052
:101A600090E8980F9D3778F7A40141505109041769
:101A7000150748F7F501E00FF11F2082F8013196B4
:101A8000EA0DFB1D0E5F1F4F80837901C7014ECF0A
:101A90008FE9820D8A3110F420EE220EF501E00F5D
:101AA000F11F20820F5F1F4FF1CF84E06ECF14E053
:101AB0008FA11123C1F0143011F482FF27C0812FB0
:101AC000DF91CF911F910F91FF90EF90DF90CF901A
:101AD000BF90AF909F908F907F906F905F904F904E
:101AE0003F902F90089582FDEACF8C8184FF0EC035
:101AF0006E857F857170640D751DF30180810E9474
:101B000075056E837F838887998702CF15E0D7CFCD
:101B1000FBE08F16910409F496CF08E010E08BE00B
:101B2000882E912CB3CF2F923F924F925F926F925B
:101B30007F928F929F92AF92BF92CF92DF92EF925D
:101B4000FF920F931F93CF93DF93CDB7DEB7A0978C
:101B50000FB6F894DEBF0FBECDBF5B01F42EDB01E4
:101B60001D921C920E9425056C0197FD84C2FC0108
:101B7000EE0FFF1FE554FD4F008111810115110586
:101B800009F47CC2F50111830083E894F0F8D801D0
:101B90008C91882339F111968C910E94B10480FDBB
:101BA00021C0FF2009F46DC282FF6BC2FAE0BF2E94
:101BB0008B2DA0960FB6F894DEBF0FBECDBFDF9180
:101BC000CF911F910F91FF90EF90DF90CF90BF903A
:101BD000AF909F908F907F906F905F904F903F90CD
:101BE0002F900895F8011082C1828C2D0E94B704B5
:101BF00023E0B22E80FDDCCFFF2011F082FDD6CF96
:101C0000D80113961C928FEF9FEFDC01F80183A798
:101C100094A7A5A7B6A740E050E0BA01C8010E946A
:101C2000EE05B82E8111ECC1C8010E942B0682304E
:101C3000910509F0E8C13801FBE06F1AFEEF7F0A59
:101C40009E012F5F3F4F790148013BEC831A3DEF26
:101C5000930A6701C3010E94EB04D6016D937D9343
:101C60008D939D936D01B0E16B0E711C6814790426
:101C700089F76701E0E1CE0ED11C44244A94542C2C
:101C80003201D7014D915D916D917D917D0183E090
:101C900090E0411551056105710509F4ABC1F801EA
:101CA000138243A654A665A676A6C8010E94EE0537
:101CB00081119EC1C8010E942B068230910508F057
:101CC00099C1F80182AD93AD8115924009F0A1C18F
:101CD000F801EB5BFF4F40805180712C612C411467
:101CE000510439F4C8018D5A9F4F0E94EB042B0117
:101CF0003C01D8019B962D913D914D915C919E9711
:101D0000298B3A8B4B8B5C8BF801478A508E618E06
:101D1000728E97AC92828FEF890D823008F079C174
:101D2000A4AC8A2D90E092878187009709F471C155
:101D30009C012150310982239323892B09F069C129
:101D4000E05CFF4F2080318018963C922E921797CE
:101D5000C1018F709927892B09F05BC13296C08031
:101D6000D180F12CE12CC114D10439F4C801815B7C
:101D70009F4F0E94EB046B017C01D801DD96ED9131
:101D8000FC91309709F445C1A92DB0E0A30192015F
:101D90000E94C01F6D8F7E8F8F8F98A39F0150E090
:101DA00040E0298F3A8F4B8F5C8FC10164E096959C
:101DB00087956A95E1F7280F391F411D511DDA01FA
:101DC000C9012D8D3E8D4F8D58A1280F391F4A1FF7
:101DD0005B1F2D8B3E8B4F8B588FC216D306E406AC
:101DE000F50608F416C1C701B601621B730B840B1C
:101DF000950B2A2D30E050E040E00E949E1F2115F7
:101E000031054105510509F404C1263F8FEF38071C
:101E100048078FE0580708F0FCC083E0882E912C1B
:101E2000263FEFEF3E074105510560F492E0892E11
:101E3000912C263FBFE03B074105510518F488244B
:101E40008394912C69017A0192E0C90ED11CE11CA6
:101E5000F11CD8015396CD92DD92ED92FC925697EB
:101E600029893A894B895C895B962D933D934D93E3
:101E70005C935E97898D9A8DAB8DBC8D820F931F7D
:101E8000A41FB51F898F9A8FAB8FBC8FF801878FE6
:101E900090A3A1A3B2A3BA01A9018D899E89AF899C
:101EA000B88D480F591F6A1F7B1F47A350A761A712
:101EB00072A7B3E08B16910409F0AEC0E75AFF4F4A
:101EC00080819181892B09F0A4C0232809F0A1C049
:101ED000C801855A9F4F0E94EB04F80163A374A3C5
:101EE00085A396A3A2E0CC0CDD1CEE1CFF1CAA95DA
:101EF000D1F73FEFC30E31E0D31EE11CF11C59E0D6
:101F0000F694E794D794C7945A95D1F74C145D048E
:101F10006E047F0408F47DC08FEF9FEFDC01F801B1
:101F20008787908BA18BB28B83879487A587B68791
:101F300080E88483F3E08F16910409F049C0F8012A
:101F4000E15AFF4F80819181019709F041C0498991
:101F50005A896B897C894F5F5F4F6F4F7F4FC801F4
:101F60000E94EE05811134C0D80114961C92F8012C
:101F7000E35DFD4F8081918185359A4A49F5C8011D
:101F80008F960E94EB04623572458146914401F5BB
:101F9000C8018D5E9D4F0E94EB04623772478144F9
:101FA0009146B1F4C801895E9D4F0E94EB04D801AF
:101FB0001F966D937D938D939C935297C801855E78
:101FC0009D4F0E94EB04F80163877487858796878D
:101FD000D8018C928091B9029091BA0201969093A7
:101FE000BA028093B90216969C938E931597E0CD12
:101FF00084E090E0CE14DF0409F043CE049749F466
:10200000BB24B394D5CD84309105D1F3029708F465
:1020100058CE7DE0B72ECCCD2328D9F3898D9A8D6B
:10202000AB8DBC8D2D8D3E8D4F8D58A1820F931F92
:10203000A41FB51F83A394A3A5A3B6A3F2E08F1694
:10204000910429F4CC0CDD1CEE1CFF1C52CFA3E044
:10205000B0E0A70196010E94C01F969587957795DD
:10206000679521E0C222DD24EE24FF24C60ED71E90
:10207000E81EF91E3ECF4BE0B42E9ACD3CE0B32EC5
:1020800097CDB12C95CD0F931F93CF93DF93EC0198
:102090000E949705982F81115FC08881833009F0D5
:1020A00051C08C81813009F04DC0898120E032E03F
:1020B000BE01615D7F4FFB01A9011192415050406B
:1020C000E1F795E5FE01E35DFD4F90839AEA3196D5
:1020D000908392E59FA798AB91E699AB21E42AAB58
:1020E00032E77B9730833196308331962083319667
:1020F00090834F85388929899A8931964083319612
:10210000308331962083319690834B853C852D8595
:102110009E85319640833196308331962083319667
:1021200090832B8D3C8D4D8D5E8D2F5F3F4F4F4F9C
:102130005F4F2BA73CA74DA75EA701E010E00E94D0
:10214000D1041C8250E040E060E089810E94E204FA
:1021500091E0811101C090E0892FDF91CF911F9113
:102160000F9108951F93CF93DF9300D000D000D03C
:10217000CDB7DEB79C838B837E836D83142F7A83E8
:102180006983CE0101960E94250597FD2AC0880F1C
:10219000991FFC01E554FD4F0190F081E02D30972F
:1021A00009F01082EB81FC81309709F01082855490
:1021B0009D4FDC01ED93FC9380E0112341F040E062
:1021C000BE016D5F7F4FCE0105960E94930D26964E
:1021D0000FB6F894DEBF0FBECDBFDF91CF911F9138
:1021E00008958BE0F4CF4F925F926F927F928F921F
:1021F0009F92AF92BF92DF92EF92FF920F931F9345
:10220000CF93DF93CDB7DEB7E0970FB6F894DEBF7C
:102210000FBECDBF7CA76BA719E0009709F4E0C003
:10222000042F7C01242F2F73D22E422FBE01675D15
:102230007F4FCE018B960E94930D182F811121C0E4
:1022400089A59AA59A8389836BA57CA5CE01019661
:102250000E94570C182F811103C088A587FD16E036
:10226000802F8C7109F4D3C0112379F0143049F414
:10227000CE0101960E94110C182F6894D3F8882380
:1022800051F0D7011D921C92ABC08D81817109F074
:10229000C7C002FD3FC1D3FE58C0EB8DFC8D09A520
:1022A0001AA51686178691E2908B80E5818BEB8DBF
:1022B000FC8D168A178A908F818FAB8CBC8CB501F0
:1022C000D8018C910E9475052B013C0180E2F5013B
:1022D0008387EB8DFC8D128E138ED8018C91833009
:1022E00011F4148A158AEB8DFC8D148E158E168EC2
:1022F000178E81E0F8018383411451046104710455
:1023000021F183A494A4A5A4B6A400E010E0980150
:10231000B301A201CE0101960E94AC09182F8111D0
:10232000B0CFB501A40189A59AA50E94EE05182F8A
:10233000E9A5FAA521E0421A51086108710843860F
:1023400054866586768681119CCFD3FE02C0689440
:10235000D6F809A51AA5F80183A594A5A5A5B6A543
:10236000F701848F958FA68FB78FAB8CBC8CB1A2F1
:10237000A0A2B501D8018C910E9475052B013C01EA
:10238000F7014682578260867186C5014C960E948D
:10239000EB044B015C01D7011A968D929D92AD9290
:1023A000BC921D9711961C930E93F801858196811E
:1023B00013969C938E9312971E96DC921E971F96EF
:1023C0001C921F9758961D921D921D921C925B970E
:1023D000F701108A118A128A138AD5FC23C010E0F3
:1023E000812FE0960FB6F894DEBF0FBECDBFDF9110
:1023F000CF911F910F91FF90EF90DF90BF90AF9022
:102400009F908F907F906F905F904F9008951111E3
:1024100038CF8D8184FD80C001FF97CF80FF95CF9D
:1024200017E02FCF81149104A104B104C1F250969A
:102430008D929D92AD92BC925397F80181859285C1
:10244000B0E0A0E09C01AD0169E0220F331F441F02
:10245000551F6A95D1F72DA73EA74FA758AB8DA55D
:102460009EA5AFA5B8A988159905AA05BB0580F159
:1024700010E0D70154964D925D926D927C925797E1
:102480001111FFCED501C4019170AA27BB27892B5A
:102490008A2B8B2B09F4A3CFB301A20189A59AA59E
:1024A0000E94FD046115710581059105B9F129E0CE
:1024B000B694A794979487942A95D1F7860E971E81
:1024C000A81EB91EF701808E918EA28EB38E88CF82
:1024D000B301A201D7018D919C910E94AF072B01FE
:1024E0003C012DA53EA54FA558A9821A930AA40A1E
:1024F000B50A32E0431651046104710448F04FEF0D
:10250000441654066406740609F0A9CF11E0B1CF51
:1025100012E0AFCF18E0B5CE14E0B3CE12E0B1CEEA
:102520002F923F924F925F926F927F928F929F92E3
:10253000AF92BF92CF92DF92EF92FF920F931F93D1
:10254000CF93DF9300D000D01F92CDB7DEB77C01D0
:102550003B015A013D832C83F90111821082BE0197
:102560006F5F7F4F0E944B058B8381115FC0F70126
:10257000F785FB83F1115AC0F701868581FF7DC184
:1025800080899189A289B389AC01BD014A0D5B1D87
:10259000611D711D481759076A077B0718F45C0114
:1025A000A094B094A114B104E9F1F7018089918954
:1025B000A289B389AC01BD01517066277727452BED
:1025C000462B472B09F02EC1E981FA81018512853E
:1025D00001501109AC01BD01E9E076956795579569
:1025E0004795EA95D1F7042315230115110509F044
:1025F00062C0F701892B8A2B8B2B89F56681778145
:1026000080859185611571058105910569F540E029
:1026100050E0BA01C7010E946B0861157105810580
:10262000910511F5F7018685806486878B810F906F
:102630000F900F900F900F90DF91CF911F910F91FE
:10264000FF90EF90DF90CF90BF90AF909F908F90D2
:102650007F906F905F904F903F902F9008954489A6
:10266000558966897789D6CF6130710581059105D5
:1026700031F482E0F7018787F2E0FB83D7CF6F3F29
:102680002FEF72078207920729F481E0F70187870D
:10269000F1E0F3CFF701648B758B868B978B2681E6
:1026A000378140855185232B242B252B21F46683EC
:1026B00077838087918789819A81FC0123A434A440
:1026C00045A456A4F701408D518D628D738D24165B
:1026D00035064606570621F40E9497058111D5CF8D
:1026E00089809A80F7014489558966897789C40170
:1026F0000E94FD04611571058105910509F4B9CFAA
:102700001B012C01200E311E411C511C6501CD2CDA
:10271000DD24C694C114D10409F466C0F401818596
:10272000928598012C0D3D1D8217930718F46C01BA
:10273000C01AD10A8601A2019101B301F40181817D
:102740000E94D1048111A1CF89819A81FC0143A506
:1027500054A565A576A5421953096409750930E0A9
:1027600020E0401751076207730788F4DC019F9649
:10277000FA01FE2FEE27FF0FE60DF71D20E032E0F5
:1027800001900D9221503040D9F7FC011382DC2CCE
:10279000CC24DD0CAC18BD08EC81FD8180819181D9
:1027A0008C0D9D1D918380836C0C7D1CF7018089AD
:1027B0009189A289B3898C0D9D1DA11DB11D808BAE
:1027C000918BA28BB38B42855385648575854817A1
:1027D00059076A077B0710F4AC01BD01F701428776
:1027E000538764877587DECEF701408951896289F6
:1027F000738982859385A485B585481759076A072B
:102800007B0758F0C4010E94970581113ECFE981F2
:10281000FA8123A634A645A656A6F701208E318E4E
:10282000428E538EF70180899189917020E032E0C9
:10283000281B390B65012A153B0508F46901F701CE
:10284000408D518D628D738D89819A810E94EE0534
:1028500081111BCF29813A81215D3F4FF70180898A
:1028600091899170A601B301820F931F0E94E71F07
:10287000E981FA8121E023838DCFF7E0FECEEF924C
:10288000FF920F931F93CF93DF9300D0CDB7DEB7A6
:102890007C01BE016F5F7F4F0E944B0581113CC0E0
:1028A000F701968596FF38C0448D558D668D778DDE
:1028B00089819A810E94EE0581112EC0F70100A145
:1028C00011A1F801838580628387F7012681378112
:1028D00040855185B801808191810E948A05F70168
:1028E0003285238594858585F801348F258F968FD1
:1028F000878F168A178A81E2808F80E5818F128AFE
:10290000138A89819A8121E0FC0123830E9443106C
:10291000F70196859F7B96870F900F90DF91CF915F
:102920001F910F91FF90EF9008950F931F93CF93F6
:10293000DF9300D0CDB7DEB78C010E943F14811128
:102940000BC0BE016F5F7F4FC8010E944B05811114
:1029500003C0F801118210820F900F90DF91CF9188
:102960001F910F910895E0916005F0916105008439
:10297000F185E02D0995E0916005F09161050284F3
:10298000F385E02D8FEF0994CF93DF93C8E8D3E16F
:10299000E0916005F09161050284F385E02D8FEFF1
:1029A00009958F3F41F08FE891E00197F1F700C062
:1029B0000000219769F781E090E0CD2B11F490E0C1
:1029C00080E0DF91CF910895CF93DF93E091600590
:1029D000F09161050680F781E02D0995E091600591
:1029E000F09161050284F385E02D8FEF09950E9437
:1029F000C414EC01892B31F40E94B314CE01DF9191
:102A0000CF910895C1E0D0E0F9CFDF92EF92FF922D
:102A10000F931F93CF93DF9300D000D000D0CDB79A
:102A2000DEB7182F042FF52EE62ED72E87FF0AC00B
:102A300040E050E0BA0187E30E940515823008F0BB
:102A400050C01F7711115BC0E0916005F0916105E6
:102A50000084F185E02D0995E0916005F091610514
:102A60000680F781E02D0995E0916005F091610500
:102A70000284F385E02D8FEF0995812F806489838F
:102A8000DA82EB82FC820D8385E9112321F087E84D
:102A9000183009F081E08E83E0916005F0916105C6
:102AA0000684F785E02D66E070E0CE010196099579
:102AB0001C3049F4E0916005F09161050284F385D2
:102AC000E02D8FEF09951AE0E0916005F091610526
:102AD0000284F385E02D8FEF099587FF02C0115026
:102AE00099F726960FB6F894DEBF0FBECDBFDF91E3
:102AF000CF911F910F91FF90EF90DF9008951C30C0
:102B000009F4BBCF0E94B3140E94E414892B09F08E
:102B1000B4CF8FEFE6CFEF92FF921F93CF93DF9367
:102B200000D0CDB7DEB77C01162F0E94C4140097E9
:102B3000B9F1E0916005F09161050284F385E02D23
:102B4000812F099581E090E01D3F51F1E0916005F2
:102B5000F09161050684F785E02D60E072E0C70121
:102B60000995E0916005F09161050088F189E02DFB
:102B700042E050E0BE016F5F7F4F8FEF0995E0911B
:102B80006005F09161050284F385E02D8FEF0995D2
:102B90008F7131E020E0853009F030E0832F922FF3
:102BA0000F900F90DF91CF911F91FF90EF900895BC
:102BB000CF92DF92EF92FF920F931F93CF93DF9309
:102BC00000D0CDB7DEB77C016B0108EE13E0E091D9
:102BD0006005F09161050284F385E02D8FEF099582
:102BE00089838F3F49F48FE891E00197F1F700C0A6
:102BF00000000150110959F789818E3F31F5E091AC
:102C00006005F09161050088F189E02DA601B7010A
:102C10008FEF0995E0916005F09161050088F189D9
:102C2000E02D42E050E0BE016F5F7F4F8FEF0995CE
:102C300081E090E00F900F90DF91CF911F910F9165
:102C4000FF90EF90DF90CF90089590E080E0F2CF7A
:102C500080912E010895EF92FF920F931F93CF93CF
:102C6000DF9300D000D0CDB7DEB7FC01862FF09304
:102C70006105E09360050190F081E02D09958FE3F7
:102C80009CE90197F1F700C00000E0916005F09128
:102C900061050284F385E02D8FEF0995E0916005D1
:102CA000F09161050680F781E02D09958FE99FE09D
:102CB0000197F1F700C0000010E5E0916005F09188
:102CC00061050284F385E02D8FEF09951150A9F776
:102CD000E0916005F09161050084F185E02D099592
:102CE000E0916005F09161050284F385E02D8FEF9E
:102CF000099540E050E0BA0180E00E9405158FE997
:102D00009FE00197F1F700C0000040E050E0BA01F9
:102D100080E00E940515182F813099F54AEA51E0AC
:102D200060E070E088E00E940515813009F03FC046
:102D3000E0916005F09161050088F189E02D44E0A3
:102D400050E0BE016F5F7F4F8FEF09958B8181301F
:102D5000C1F48C818A3AA9F408EE13E040E050E017
:102D600060E070E489EA0E940515882309F441C0F7
:102D70008FE99FE00197F1F700C0000001501109B1
:102D800069F710E01093BD0201E0111100E000931B
:102D90002E010E94B314802F0F900F900F900F9070
:102DA000DF91CF911F910F91FF90EF90089540E038
:102DB00050E0BA0189EA0E94051501E0823010F462
:102DC00009EA18E088EEE82E83E0F82E40E050E0B3
:102DD000BA01802F0E940515882339F18FE99FE001
:102DE0000197F1F700C0000091E0E91AF10871F7CE
:102DF000C8CF40E050E0BA018AE30E940515811176
:102E0000C0CFE0916005F09161050088F189E02D67
:102E100044E050E0BE016F5F7F4F8FEF09958981DD
:102E200018E086FFAFCF18E1ADCF40E052E060E0A0
:102E300070E080E10E9405158111A3CFA3CFEF922E
:102E4000FF921F93CF93DF937C01E90180912E01C4
:102E500080FD34C08091BD0284FD07C089E0440F2D
:102E6000551F661F771F8A95D1F711E1C230D10532
:102E700008F012E1812F0E940515811113C060E056
:102E800072E0C7010E94D815892B21F08EEFF81A45
:102E90002197A9F7123131F440E050E0BA018CE0FB
:102EA0000E9405150E94B31481E0CD2B09F480E047
:102EB000DF91CF911F91FF90EF90089583E0F8CFBD
:102EC000CF92DF92EF92FF920F931F93CF93DF93F6
:102ED0008C016A017B01E90180912E0180FD51C0C6
:102EE0008091BD0284FD07C099E0CC0CDD1CEE1C76
:102EF000FF1C9A95D1F7C130D10509F5B701A6019C
:102F000088E10E940515811139C06EEFC8010E9449
:102F10008B1531E020E0892B09F030E0C32FD22F50
:102F20000E94B31481E0CD2B09F480E0DF91CF91B2
:102F30001F910F91FF90EF90DF90CF9008958C70CC
:102F400031F0AE0170E060E087E90E940515B7013D
:102F5000A60189E10E9405158111E2CF6CEFC8013D
:102F60000E948B15892B19F01E5F2197B9F76DEF21
:102F700090E080E00E948B15892B91F6C1E0D0E0B3
:102F8000CFCF83E0D3CF0F931F93CF93DF93CDB7F2
:102F9000DEB760970FB6F894DEBF0FBECDBF90913D
:102FA0002E0113E090FD1BC08B01813069F028F0E9
:102FB000833009F485C014E010C00E94E41411E0CD
:102FC000892B59F010E009C040E050E0BA0189E0D7
:102FD0000E940515882379F011E00E94B314812F17
:102FE00060960FB6F894DEBF0FBECDBFDF91CF91D4
:102FF0001F910F91089560E170E0CE0101960E944B
:10300000D815892B49F34A85298588859981929518
:1030100096959695937050E0913019F590E0B0E058
:10302000A0E0DC019927882788279927AF73BB2761
:103030000196A11DB11D30E0322F2227240F351F2C
:10304000820F931FA11DB11D2AE0880F991FAA1F8F
:10305000BB1F2A95D1F7F80180839183A283B383A4
:10306000B1CF2295269526952370F4E08F9FC0015D
:103070001124820F911D01962F8130E0322F2227DB
:10308000330F330F22273C70820F931FB0E0A0E074
:103090002E812F703B85331F3327331F230F32E0E0
:1030A000320F440F551F242F2670230F2950330B46
:1030B00004C0880F991FAA1FBB1F2A95D2F7CBCF38
:1030C00080E890E0A0E0B0E0C6CF1F93CF93DF93FD
:1030D000FC012285211129C0EC010190F081E02D35
:1030E0008C819D81E80FF91F60838C819D81019601
:1030F0006A817B810E948A1F9D838C830E94F418C1
:10310000182F81110E94F218888599850196998758
:1031100088872A813B818217930711F481E08A878F
:1031200011110E94F01881E001C080E0DF91CF9181
:103130001F9108950F931F93CF93DF93FC01208578
:1031400031851FEF232BF9F0EC01868197810190E7
:10315000F081E02DE80FF91F108101966A817B81D3
:103160000E948A1F9F838E830E94F418082F81116A
:103170000E94F218888599850197998788871A8611
:1031800001110E94F018812FDF91CF911F910F91B3
:103190000895FC018085918508951F93CF93DF9357
:1031A000EC010E94F418182F81110E94F2181D8260
:1031B0001C821F821E82198618861A86112329F006
:1031C000DF91CF911F910C94F018DF91CF911F9157
:1031D0000895FC0171836083538342830C94CD185E
:1031E00078940895F89408958FB7881F8827881FCA
:1031F0000895E1E6F0E080E880831082109280007C
:1032000083E08093810010928500109284001092D8
:1032100087001092860084EF8093890084E2809377
:1032200088008FEF80938B0080938A0086E08093E4
:103230006F0083B7816083BFA89588E19FE00FB6D8
:10324000F894A895809360000FBE909360007894E6
:103250000895A895089583B7816083BF889583B743
:103260008E7F83BF08951F920F920FB60F92112485
:103270002F933F934F935F936F937F938F939F937E
:10328000AF93BF93EF93FF93109285001092840049
:103290008091BE029091BF0286509F4F68EE73E00E
:1032A0000E948A1F9B014091C0025091C10260910F
:1032B000C2027091C302420F531F611D711D4093E2
:1032C000C0025093C1026093C2027093C3029093F4
:1032D000BF028093BE020E94CD01FF91EF91BF918A
:1032E000AF919F918F917F916F915F914F913F919E
:1032F0002F910F900FBE0F901F9018951F920F9255
:103300000FB60F9211242F933F934F935F936F93B8
:103310007F938F939F93AF93BF93EF93FF938FEF21
:1033200080938B0080938A000E94CD01FF91EF91E2
:10333000BF91AF919F918F917F916F915F914F91CD
:103340003F912F910F900FBE0F901F9018958F9265
:103350009F92AF92BF92CF92DF92EF92FF920F9324
:103360001F93CF93DF938C01EB018090C00290906C
:10337000C102A090C202B090C302E090BE02F090E1
:10338000BF02F0E0E0E030E020E08AEFC82ED12C70
:103390009091840080918500892798278927B6011C
:1033A0000E948A1F6E0D7F1D2115310519F06E17C1
:1033B0007F0731F02F5F3F4FFB012A30310541F786
:1033C000F80180829182A282B38279836883DF913F
:1033D000CF911F910F91FF90EF90DF90CF90BF9012
:1033E000AF909F908F9008952091BE023091BF02C0
:1033F00028173907D0F4821B930B8A3F9105E0F41C
:103400004AEF489F9001499F300D1124909184000C
:10341000809185008927982789278217930738F09C
:103420008FEF80938B0080938A000C94CD013093B2
:103430008B0020938A0008950895633008F054C0EB
:10344000982F969596959695877021E030E001C06B
:10345000220F8A95EAF7822F80956130E1F492304D
:1034600061F0933089F0913009F03FC094B1292B7D
:1034700024B995B1892385B9089597B1292B27B926
:1034800098B1892388B908959AB1292B2AB99BB19B
:1034900089238BB929C0923069F09330A1F0913023
:1034A000D9F494B1982394B9623019F785B1282BD7
:1034B00025B9089597B1982397B9623009F788B173
:1034C000282B28B908959AB198239AB96230F9F651
:1034D0008BB1282B2BB90895623039F4923079F3EF
:1034E0009330B1F3913011F30895923049F2933053
:1034F00071F29130C9F7BDCF6330F0F4982F9695F3
:103500009695969587706130C1F421E030E001C056
:10351000220F8A95EAF7923041F0933051F09130C2
:1035200059F485B1282B25B9089588B1282B28B9DD
:1035300008958BB1282B2BB90895611116C021E095
:1035400030E001C0220F8A95EAF72095923039F0D9
:10355000933041F0913081F785B12823E4CF88B1D1
:103560002823E5CF8BB12823E6CF623029F721E06D
:1035700030E001C0220F8A95EAF7923039F093309B
:1035800041F09130C9F685B12827CDCF88B12827E1
:10359000CECF8BB12827CFCF482F477021E030E026
:1035A000042E01C0220F0A94EAF7982F969596955B
:1035B0009695923069F0933069F0913069F483B157
:1035C000822390E002C0959587954A95E2F7089589
:1035D00086B1F6CF89B1F4CF80E00895EF92FF92E3
:1035E0001F93CF93DF93182F8CEDE82E81E0F82EF8
:1035F000D701CD91DC9161E08BE0FE01099562E09D
:103600008CE0FE01099561E08DE0FE01099561E025
:10361000812FFE010995D7011296ED91FC9161E091
:10362000812F099510932F0180E58CBD1DBCDF9182
:10363000CF911F91FF90EF900895CF93DF931CBC23
:103640001DBCC091DC01D091DD0160E08BE0FE018A
:10365000099560E08CE0FE01099560E08DE0FE01D7
:10366000099560E080912F01FE01DF91CF910994CF
:103670009CB5907F81110EC08DB58E7F8DBD84E08D
:10368000689FB00111246C70962B41111CC09F7D66
:103690009CBD0895823011F49160EECF843011F416
:1036A0009260EACF853011F49360E6CF863019F44A
:1036B0008DB58160E3CF813011F49160F9CF833013
:1036C000F1F69260F5CF413019F79062E1CFE091C9
:1036D000DE01F091DF0160E080912F010994E0911B
:1036E000DE01F091DF0161E080912F010994CF9319
:1036F000C82F0E94F218CEBD00000DB407FEFDCF0A
:10370000CEB50E94F0188C2FCF910895FF920F93A1
:103710001F93CF93DF93F82EEB018B01040F151F3E
:10372000C017D10731F4DF91CF911F910F91FF9016
:1037300008958F2D0E94771B8993F2CF0F931F93CB
:10374000CF93DF93EC018C01060F171FC017D10731
:1037500029F4DF91CF911F910F91089589910E94D3
:10376000771BF4CFEF92FF920F931F93CF93DF93CA
:10377000EB017C018B01040F151FC017D10739F431
:10378000DF91CF911F910F91FF90EF900895F70176
:1037900081917F010E94771B8993EFCF1092C10026
:1037A0001092C20008959091C00095FFFCCF8093C5
:1037B000C6000895CF93DF93EC018991811103C076
:1037C000DF91CF9108950E94D31BF7CF0E94DA1B9F
:1037D0008DE00E94D31B8AE00C94D31BCF93DF9320
:1037E000EC01FE018491811103C0DF91CF91089516
:1037F000FE0184910E94D31B2196F3CF0E94EE1B01
:103800008DE00E94D31B8AE00C94D31B0F931F936F
:10381000CF93DF93EC018C01060F171FC017D10760
:1038200029F4DF91CF911F910F91089589910E9402
:10383000D31BF4CF8091C00086FB882780F90895C0
:1038400084EC92E00C94CD1884EC92E00C949A18DD
:1038500084EC92E00C94C9184F925F926F927F9221
:103860008F929F92AF92BF92CF92DF92EF92FF9290
:10387000CF93DF9300D000D0CDB7DEB76B017C01D2
:10388000498388E08093C1008091C1008069809362
:10389000C10040E450E06FEC72E084EC92E00E94E2
:1038A000E918E981E295EF70E65080E8E33020F412
:1038B000F0E0EC50FE4F808199819695969593703B
:1038C000913009F4B3C0923009F4B2C02981237059
:1038D000223009F488608093C200C701B6010E94BB
:1038E0006B1E4B015C0120E030E040E851E40E9497
:1038F0001D1F9B01AC0160E074E284E79BE40E9421
:10390000CA1D20E030E040E85FE30E94581D6B01D3
:103910007C010E943C1E2B013C010E946B1E9B01FE
:10392000AC01C701B6010E94581DA70196010E9473
:10393000CA1D20E030E048EC52E40E941D1F6B01DC
:103940007C0120E030E0A9010E94C51D87FF04C072
:10395000F7FAF094F7F8F09420E030E040E051E41A
:10396000C501B4010E941D1F9B01AC0160E074E21F
:1039700084E79BE40E94CA1D20E030E040E85FE35A
:103980000E94581D4B015C010E943C1E69837A8392
:103990008B839C830E946B1E9B01AC01C501B4010B
:1039A0000E94581DA50194010E94CA1D20E030E02C
:1039B00048EC52E40E941D1F4B015C0120E030E006
:1039C000A9010E94C51D87FF04C0B7FAB094B7F8DB
:1039D000B09420E030E040E05FE3C701B6010E9410
:1039E000C51D87FD08C0A5019401C701B6010E944D
:1039F000C51D1816FCF0BB27A72D962D852D80938D
:103A0000C5004092C4000F900F900F900F90DF916F
:103A1000CF91FF90EF90DF90CF90BF90AF909F90AD
:103A20008F907F906F905F904F90089580634ECFFE
:103A300080624CCF29813A814B815C81BB27A52FC5
:103A4000942F832F8093C5002093C4008091C000E1
:103A500082608093C000D7CF1F920F920FB60F9253
:103A600011242F933F934F935F936F937F938F9383
:103A70009F93AF93BF93EF93FF938091C0006091AA
:103A8000C6008C7121F484EC92E00E946518FF91CD
:103A9000EF91BF91AF919F918F917F916F915F91C6
:103AA0004F913F912F910F900FBE0F901F9018953F
:103AB0005058BB27AA270E94701D0C94E31E0E9439
:103AC000D51E38F00E94DC1E20F039F49F3F19F417
:103AD00026F40C94D21E0EF4E095E7FB0C94CC1E59
:103AE000E92F0E94F41E58F3BA1762077307840780
:103AF000950720F079F4A6F50C94161F0EF4E095C6
:103B00000B2EBA2FA02D0B01B90190010C01CA0197
:103B1000A0011124FF27591B99F0593F50F4503E42
:103B200068F11A16F040A22F232F342F4427585F34
:103B3000F3CF469537952795A795F0405395C9F74C
:103B40007EF41F16BA0B620B730B840BBAF0915004
:103B5000A1F0FF0FBB1F661F771F881FC2F70EC0A3
:103B6000BA0F621F731F841F48F487957795679576
:103B7000B795F7959E3F08F0B0CF9395880F08F062
:103B80009927EE0F9795879508950E94A81E08F42F
:103B900081E008950E94DE1D0C94E31E0E94DC1E4D
:103BA00058F00E94D51E40F029F45F3F29F00C9494
:103BB000CC1E51110C94171F0C94D21E0E94F41E9F
:103BC00068F39923B1F3552391F3951B550BBB274C
:103BD000AA2762177307840738F09F5F5F4F220F91
:103BE000331F441FAA1FA9F335D00E2E3AF0E0E888
:103BF00032D091505040E695001CCAF72BD0FE2FD2
:103C000029D0660F771F881FBB1F26173707480765
:103C1000AB07B0E809F0BB0B802DBF01FF2793581D
:103C20005F4F3AF09E3F510578F00C94CC1E0C94F7
:103C3000171F5F3FE4F3983ED4F386957795679519
:103C4000B795F7959F5FC9F7880F911D9695879552
:103C500097F90895E1E0660F771F881FBB1F621771
:103C600073078407BA0720F0621B730B840BBA0B2F
:103C7000EE1F88F7E09508950E94FC1E88F09F577C
:103C800098F0B92F9927B751B0F0E1F0660F771F80
:103C9000881F991F1AF0BA95C9F714C0B13091F076
:103CA0000E94161FB1E008950C94161F672F782FFD
:103CB0008827B85F39F0B93FCCF38695779567953B
:103CC000B395D9F73EF490958095709561957F4FA7
:103CD0008F4F9F4F0895E89409C097FB3EF490954D
:103CE0008095709561957F4F8F4F9F4F9923A9F0D5
:103CF000F92F96E9BB279395F69587957795679564
:103D0000B795F111F8CFFAF4BB0F11F460FF1BC0A7
:103D10006F5F7F4F8F4F9F4F16C0882311F096E93A
:103D200011C0772321F09EE8872F762F05C06623E8
:103D300071F096E8862F70E060E02AF09A95660FA1
:103D4000771F881FDAF7880F9695879597F908955A
:103D5000990F0008550FAA0BE0E8FEEF161617069C
:103D6000E807F907C0F012161306E407F50798F004
:103D7000621B730B840B950B39F40A2661F0232B1D
:103D8000242B252B21F408950A2609F4A140A69599
:103D90008FEF811D811D089597F99F6780E870E07E
:103DA00060E008959FEF80EC089500240A941616B1
:103DB000170618060906089500240A941216130619
:103DC000140605060895092E0394000C11F48823A7
:103DD00052F0BB0F40F4BF2B11F460FF04C06F5FC3
:103DE0007F4F8F4F9F4F089557FD9058440F551F99
:103DF00059F05F3F71F04795880F97FB991F61F06D
:103E00009F3F79F087950895121613061406551FE3
:103E1000F2CF4695F1DF08C0161617061806991F4F
:103E2000F1CF86957105610508940895E894BB2744
:103E300066277727CB0197F908950E94301F0C94CD
:103E4000E31E0E94D51E38F00E94DC1E20F0952350
:103E500011F00C94CC1E0C94D21E11240C94171F3C
:103E60000E94F41E70F3959FC1F3950F50E0551F0B
:103E7000629FF001729FBB27F00DB11D639FAA27BF
:103E8000F00DB11DAA1F649F6627B00DA11D661F0E
:103E9000829F2227B00DA11D621F739FB00DA11D2F
:103EA000621F839FA00D611D221F749F3327A00DE9
:103EB000611D231F849F600D211D822F762F6A2F85
:103EC00011249F5750409AF0F1F088234AF0EE0FEA
:103ED000FF1FBB1F661F771F881F91505040A9F717
:103EE0009E3F510580F00C94CC1E0C94171F5F3F31
:103EF000E4F3983ED4F3869577956795B795F79553
:103F0000E7959F5FC1F7FE2B880F911D96958795CA
:103F100097F90895AA1BBB1B51E107C0AA1FBB1F3D
:103F2000A617B70710F0A61BB70B881F991F5A9545
:103F3000A9F780959095BC01CD010895A1E21A2EB4
:103F4000AA1BBB1BFD010DC0AA1FBB1FEE1FFF1F3D
:103F5000A217B307E407F50720F0A21BB30BE40B8D
:103F6000F50B661F771F881F991F1A9469F76095D4
:103F70007095809590959B01AC01BD01CF0108958E
:103F80000E94CB1FA59F900DB49F900DA49F800D04
:103F9000911D11240895A29FB001B39FC001A39F5A
:103FA000700D811D1124911DB29F700D811D112472
:103FB000911D0895FB01DC0104C08D9101908019D1
:103FC00021F441505040C8F7881B990B0895FB011C
:103FD000DC0102C001900D9241505040D8F7089585
:103FE000DC0101C06D9341505040E0F70895FC01A1
:103FF0008191861721F08823D9F799270895319761
:08400000CF010895F894FFCFF1
:104008000401000000005300000000000000000050
:1040180000000000000000000000002A030000006B
:10402800000000000000000000000000000001FF88
:1040380057656C636F6D6521005344204D6F756E35
:104048007421006E657766696C652E747874004615
:10405800696C65204F70656E205375636365737373
:104068002100497420776F726B73210D0A204974FF
:1040780020776F726B7320416761696E210D0A00AA
:1040880046696C652077726974652053756363654A
:104098007373210046696C652077726974652046E0
:1040A80061696C75726521004572726F72203D20DE
:1040B8000046696C65206F70656E204661696C7595
:1040C800726521004641543332202020002A2B2CCF
:1040D8003A3B3C3D3E5B5D7C223F7F001D1A7C1ACB
:1040E800CC1AEE1A1D1B381B671B6F1B771BB21BE4
:1040F8009E1B861B8284862C1CCE1B281C241C20FD
:104108001CD31BDA1BE61BEE1BFE1B061C1A1C002D
:00000001FF
