:100000000C9434000C9451000C9451000C94510049
:100010000C9451000C9451000C9451000C948D06DA
:100020000C9451000C9451000C9451000C94FE0659
:100030000C9449070C9451000C9452060C945100F6
:100040000C9451000C9451000C9451000C945100EC
:100050000C9451000C9451000C9451000C945100DC
:100060000C9451000C94510011241FBECFEFD8E026
:10007000DEBFCDBF11E0A0E0B1E0E8E3F4E102C0F3
:1000800005900D92AC35B107D9F722E0ACE5B1E0AF
:1000900001C01D92AD32B207E1F70E94E1000C945D
:1000A0001A0A0C9400008DE192E00C944105E09155
:1000B0000702F09108022481358127323105E9F0E9
:1000C0002A33310509F453C0232B09F05CC0CF015A
:1000D0000E94480150E040E065E88091070290915D
:1000E00008020E94AE03E0910702F091080287E245
:1000F00090E09583848381E008958538E1F710923C
:100100005D0110925C01E0915C01F0915D01E031D4
:1001100087E2F807A4F7CF0165E070E00E94E409E8
:1001200060FF20C081E080935F018093600129E13E
:1001300031E04EE551E0BF018DE192E00E947C0587
:1001400021E04DEC5CEC6CEC7DE38091070290913A
:1001500008020E944E01E0910702F09108028AE332
:1001600090E0C7CF10925F0110926001E0CF8D3810
:1001700011F680915C0190915D01019690935D0173
:1001800080935C01C0CF1582148283E0089561E002
:1001900081E291E00E94190424E04DE151E061E226
:1001A00071E08DE192E00E94DB04E0915201F09158
:1001B000530123E530E040E050E060E87FE380E079
:1001C00009940E94C7000E94C8060E94A6020E94CD
:1001D000FD0070E060E08AE291E00E94250380E08B
:1001E00091E00E94D7030E945303C82F0E94F40697
:1001F000C111F9CF0E94F606F6CF1092630110925A
:10020000620108958AE291E00C94CB030F931F934F
:10021000CF93DF9300D000D000D0CDB7DEB78C01F4
:1002200019821A821B821C821E821D82BE016B5F94
:100230007F4FCE0101960E947307F80146855785CE
:100240006089718989819A81AB81BC81481759077E
:100250006A077B07B9F4828993892D813E8128172B
:10026000390768F00E94020126960FB6F894DEBFA7
:100270000FBECDBFDF91CF911F910F9108950E94C6
:10028000BD07F2CF481759076A077B0768F7EACF1F
:10029000BC016E5E7F4F0E960C9473078F929F92F7
:1002A000AF92BF92CF92DF92EF92FF920F931F9384
:1002B000CF93DF9300D000D000D0CDB7DEB78C0154
:1002C0006A017B01213009F08DC0FC01868597858C
:1002D000A089B18989839A83AB83BC8382899389FE
:1002E0009E838D832FE632E143E85AE3C701B601CE
:1002F0000E94B50887FF08C08FE6C82E82E1D82E7D
:1003000083E8E82E8AE3F82E20E030E04AE754E460
:10031000C701B6010E9463090E94BA0828EE33E0C3
:1003200040E050E00E94F809ED81FE81CF01860F88
:10033000971FC980DA80EB80FC80C20ED31EE41EBA
:10034000F51E68EE73E00E94D00946015701860E43
:10035000971EA11CB11CB501A401D8011E964D9396
:100360005D936D937C93519753969C938E93529784
:10037000E0916201F09163013097A9F0C684D784BF
:10038000E088F1884C155D056E057F0560F04C1521
:100390005D056E057F0509F04DC0228933898217FE
:1003A000930708F047C0D8011D96FC93EE931C9765
:1003B0001093630100936201C8010E940601269612
:1003C0000FB6F894DEBF0FBECDBFDF91CF911F9166
:1003D0000F91FF90EF90DF90CF90BF90AF909F90E4
:1003E0008F900895BE016B5F7F4FCE0101960E94F2
:1003F000730778CFD5011E96CD90DD90ED90FC90DF
:1004000051974C155D056E057F0540F4D8011D968A
:10041000BC92AE921C9715870487D1CF4C155D0511
:100420006E057F0531F452962D913C91821793070A
:1004300068F3F501A484B584A114B104D9F6D801F8
:100440001D961C921E921C97E6CF0F931F93CF937D
:10045000DF9300D000D000D0CDB7DEB78C01BE0155
:100460006B5F7F4FCE0101960E947307F8014685AE
:1004700057856089718989819A81AB81BC814817D0
:1004800059076A077B0778F0481759076A077B07FF
:1004900041F481E0428953892D813E81241735073B
:1004A00018F480E001C081E026960FB6F894DEBF14
:1004B0000FBECDBFDF91CF911F910F910895E091B5
:1004C0000702F0910802248135812115310559F088
:1004D00023363105B9F5823871F48091620190912B
:1004E0006301009751F4E0910702F091080283E65E
:1004F00090E09583848381E008950E9425028823FB
:10050000C1F050E040E06DE880916201909163019C
:100510000E94AE03892B59F4E0916201F0916301CE
:10052000848595859093630180936201D6CF0E9464
:10053000020180916201909163010097A1F20E94F3
:100540000601D1CF1582148283E00895109205022E
:100550001092060210920A021092090210920802EA
:10056000109207020895A0910902B0910A02FD01BC
:10057000E817F90739F0309709F408950190F081F0
:10058000E02DF6CF3097D9F0828581111286EA17D7
:10059000FB0799F48081918190930A02809309026C
:1005A00008958D919C9111978E179F0729F4808152
:1005B00091818D939C930895DC01109791F7089594
:1005C0001F93CF93DF93DC011296ED91FC9130974E
:1005D000C9F0162FEC01909308028093070282E085
:1005E0008A875F834E83862F09958250823010F070
:1005F000133831F4CE01DF91CF911F910C94B302E7
:1006000081E08A87DF91CF911F9108951F93CF9347
:10061000DF9310926401C0910902D0910A0211E0A7
:10062000209721F4DF91CF911F9108958B85882326
:1006300041F01A871B8650E040E062E8CE010E943C
:10064000E0020990D881C02DEBCFCF93DF9330919A
:10065000090220910A02E32FF22FE817F907E1F0CF
:100660003097E9F40097C1F0AB01FC01308321839E
:1006700090930A028093090281E082871582148296
:10068000C0910702D091080261E8CF010E94E00208
:10069000D0930802C0930702DF91CF910895019093
:1006A000F081E02DDACFFF920F931F93CF93DF936A
:1006B0008091640181110E94060340910602442347
:1006C00009F43FC0E09105022E2F30E085E0E89F5D
:1006D000F0011124EB59FE4FF080018112818381DA
:1006E00094812F5F3F4F2F71332720930502415094
:1006F00040930602C0910902D0910A020097F9F0D6
:10070000E1E8FE1203C021E0FC012287FC01228502
:1007100020FF17C0A8016F2D0E94E00212C0809137
:10072000640181110E9406038A8580FF05C0A8012B
:100730006F2DCE010E94E0020990D881C02D209734
:1007400071F79091640180910602890F9927991F92
:10075000DF91CF911F910F91FF9008959C0190918F
:1007600006029032A9F0E0910502E90FEF7185E0F1
:10077000E89FF0011124EB59FE4F608352834183BF
:10078000348323839F5F9093060290E080E0089576
:1007900081E090E00895009749F0FC012285215006
:1007A000223020F421E02387209364010895CF9321
:1007B000DF93EC0189919991009719F4DF91CF9122
:1007C000089570E060E00E942503F4CFE82FF0E088
:1007D000E15CFE4F80810895CF93DF93982F917055
:1007E000C92F90E0D92F83FBAA27A0F9B0E0CA1740
:1007F000DB0711F099E0892781FBEE27E0F9F0E0B3
:1008000084FB662760F970E0E617F70711F092E1C4
:10081000892782FB442740F950E085FB222720F9F5
:1008200030E04217530711F094E28927DF91CF910E
:100830000895CF93DF93EC01688788818F3F31F073
:10084000E0915601F091570161E0099589818F3F50
:1008500031F0E0915601F091570161E009958A81EC
:100860008F3F31F0E0915601F091570161E0099519
:100870008B818F3F31F0E0915601F091570161E09B
:1008800009958C818F3F31F0E0915601F09157012D
:1008900061E009958D818F3F31F0E0915601F09133
:1008A000570161E009958E818F3F31F0E09156014B
:1008B000F091570161E009958F818F3F41F0E09100
:1008C0005601F091570161E0DF91CF910994DF91DA
:1008D000CF9108950F931F93CF938C01C62FFC01E6
:1008E0008085813009F4C095F80180818F3F39F00F
:1008F000E0915801F09159016C2F61700995F80150
:1009000081818F3F41F0C1FB662760F9E09158017A
:10091000F09159010995F80182818F3F41F0C2FBA6
:10092000662760F9E0915801F09159010995F801A5
:1009300083818F3F41F0C3FB662760F9E091580146
:10094000F09159010995F80184818F3F41F0C4FB72
:10095000662760F9E0915801F09159010995F80175
:1009600085818F3F41F0C5FB662760F9E091580112
:10097000F09159010995F80186818F3F41F0C6FB3E
:10098000662760F9E0915801F09159010995F80145
:1009900087818F3F61F06C2F661F6627661FE0918D
:1009A0005801F0915901CF911F910F910994CF9166
:1009B0001F910F9108956F927F928F929F92AF92A5
:1009C000BF92CF92DF92EF92FF920F931F93CF933C
:1009D000DF93EC01798368832A835C834B831D86D4
:1009E000FB018085811124C01E866E01F5E0CF0ECB
:1009F000D11CE22EF12C10E000E0609056017090C6
:100A00005701A0905801B090590145010E151F05DE
:100A100099F4DF91CF911F910F91FF90EF90DF90AC
:100A2000CF90BF90AF909F908F907F906F900895E0
:100A30008130D9F68E87D9CFF60111926F01EB8103
:100A4000FC81E00FF11F61E08081F3010995E881ED
:100A5000F981808581110BC0EB81FC81E00FF11FD2
:100A600061E08081F40109950F5F1F4FCFCF813086
:100A7000D9F7EB81FC81E00FF11F60E08081F50187
:100A8000F2CFEF92FF921F93CF93DF93EC0110E030
:100A9000E0905801F09059018A81181700F1ED8516
:100AA000EC0FFD2FF11D6581888199810E946A04F8
:100AB000ED858B819C81E80FF92FF11D6E8580817A
:100AC000F70109958D858F5F8D879A81891708F0C9
:100AD0001D86DF91CF911F91FF90EF90089561E007
:100AE0008E85811160E0EB81FC81E10FF11D808139
:100AF000F70109951F5FD0CF8F929F92AF92BF925F
:100B0000CF92DF92EF92FF920F931F93CF93DF93D9
:100B1000EC01962E872E7A019A81092F10E0C801E8
:100B20000596C80FD91F6A01C00ED11E020F131FF0
:100B30008AE0A82EB12CCE14DF0469F4DF91CF91A6
:100B40001F910F91FF90EF90DF90CF90BF90AF90EB
:100B50009F908F900895892D982DB5010E94D009FE
:100B6000962E872E0E94E603F80192918F01911133
:100B70000E94EC03F60192916F01911180688A93B3
:100B8000DACFCF92DF92EF92FF92CF93DF93E82FED
:100B9000CB01BA01E901E11134C022E024BD25BD39
:100BA00016BC27EC27BD18BC20E030E040E251E441
:100BB0000E9463096B017C0120E03CED4FE757E4A4
:100BC0000E945E091816A4F48CED9FEF9093120218
:100BD00080931102D0931602C093150282E0809395
:100BE0006E00DF91CF91FF90EF90DF90CF9008954E
:100BF000C701B6010E94BA087093120260931102F5
:100C0000E9CFE23071F71092B600E093B000E093C4
:100C1000B1001092B20027EC2093B3001092B40000
:100C200020E030E040E251E40E9463096B017C0166
:100C300020E03CED4FE757E40E945E09181674F47B
:100C40008CED9FEF90930C0280930B02D0931002D7
:100C5000C0930F0282E080937000C3CFC701B6013A
:100C60000E94BA0870930C0260930B02EFCF8111BF
:100C700008C014BC15BC16BC17BC18BC10926E0082
:100C80000895823071F41092B6001092B000109264
:100C9000B1001092B2001092B3001092B400109202
:100CA000700008951F920F920FB60F9211242F9388
:100CB0003F934F935F936F937F938F939F93AF93E4
:100CC000BF93EF93FF9380911302909114020196CA
:100CD000909314028093130220911102309112021A
:100CE0008217930748F01092140210921302E091B9
:100CF0001502F09116020995FF91EF91BF91AF9106
:100D00009F918F917F916F915F914F913F912F9123
:100D10000F900FBE0F901F9018951F920F920FB655
:100D20000F9211242F933F934F935F936F937F9371
:100D30008F939F93AF93BF93EF93FF9380910D0297
:100D400090910E02019690930E0280930D022091D5
:100D50000B0230910C028217930748F010920E029A
:100D600010920D02E0910F02F09110020995FF918F
:100D7000EF91BF91AF919F918F917F916F915F9113
:100D80004F913F912F910F900FBE0F901F9018958C
:100D90001092800083E08093810010928500109271
:100DA0008400109287001092860084E294EF909362
:100DB0008900809388008FEF9FEF90938B00809342
:100DC0008A0086E080936F0083B7816083BFA89517
:100DD00088E19FE00FB6F894A895809360000FBE5D
:100DE0009093600078940895A895089583B78160E2
:100DF00083BF889583B78E7F83BF08951F920F921C
:100E00000FB60F9211242F933F934F935F936F93DD
:100E10007F938F939F93AF93BF93EF93FF93109222
:100E200085001092840080911702909118028650DC
:100E30009F4F68EE73E00E94D0099B014091190218
:100E400050911A0260911B0270911C02420F531FB5
:100E5000611D711D4093190250931A0260931B0289
:100E600070931C0290931802809317020E94020153
:100E7000FF91EF91BF91AF919F918F917F916F9172
:100E80005F914F913F912F910F900FBE0F901F9048
:100E900018951F920F920FB60F9211242F933F9324
:100EA0004F935F936F937F938F939F93AF93BF9372
:100EB000EF93FF938FEF9FEF90938B0080938A00C7
:100EC0000E940201FF91EF91BF91AF919F918F918D
:100ED0007F916F915F914F913F912F910F900FBE36
:100EE0000F901F9018958F929F92AF92BF92CF92C2
:100EF000DF92EF92FF920F931F93CF93DF938C01BA
:100F0000EB018090190290901A02A0901B02B09001
:100F10001C02E0901702F0901802F0E0E0E030E0F0
:100F200020E08AEFC82ED12C80918400909185001A
:100F3000B6010E94D0096E0D7F1D2115310519F0F3
:100F40006E177F0731F02F5F3F4FFB012A303105CD
:100F500059F7F80180829182A282B38279836883F3
:100F6000DF91CF911F910F91FF90EF90DF90CF9085
:100F7000BF90AF909F908F9008952091170230916D
:100F8000180228173907C0F4821B930B8A3F91057A
:100F9000D0F44AEF489F9001499F300D1124809171
:100FA0008400909185008217930740F08FEF9FEFA8
:100FB00090938B0080938A000C94020130938B00F5
:100FC00020938A0008950895633008F054C0982F44
:100FD000969596959695877021E030E001C0220F96
:100FE0008A95EAF7822F80956130E1F4923061F0C2
:100FF000933089F0913009F03FC094B1292B24B986
:1010000095B1892385B9089597B1292B27B998B14E
:10101000892388B908959AB1292B2AB99BB18923CC
:101020008BB929C0923069F09330A1F09130D9F496
:1010300094B1982394B9623019F785B1282B25B95A
:10104000089597B1982397B9623009F788B1282B92
:1010500028B908959AB198239AB96230F9F68BB1FC
:10106000282B2BB90895623039F4923079F39330FC
:10107000B1F3913011F30895923049F2933071F247
:101080009130C9F7BDCF6330F0F4982F96959695BF
:10109000969587706130C1F421E030E001C0220FE5
:1010A0008A95EAF7923041F0933051F0913059F43B
:1010B00085B1282B25B9089588B1282B28B9089522
:1010C0008BB1282B2BB90895611116C021E030E0B7
:1010D00001C0220F8A95EAF72095923039F09330BB
:1010E00041F0913081F785B12823E4CF88B12823DE
:1010F000E5CF8BB12823E6CF623029F721E030E03D
:1011000001C0220F8A95EAF7923039F0933041F00E
:101110009130C9F685B12827CDCF88B12827CECF09
:101120008BB12827CFCF482F477021E030E0042E25
:1011300001C0220F0A94EAF7982F969596959695F6
:10114000923069F0933069F0913069F483B1822371
:1011500090E002C0959587954A95E2F7089586B18B
:10116000F6CF89B1F4CF80E008950E94E90808F431
:1011700081E008950E943D0988F09F5798F0B92FAB
:101180009927B751B0F0E1F0660F771F881F991FBC
:101190001AF0BA95C9F714C0B13091F00E945709FE
:1011A000B1E008950C945709672F782F8827B85F0E
:1011B00039F0B93FCCF3869577956795B395D9F714
:1011C0003EF490958095709561957F4F8F4F9F4F1E
:1011D0000895990F0008550FAA0BE0E8FEEF1616C8
:1011E0001706E807F907C0F012161306E407F5071B
:1011F00098F0621B730B840B950B39F40A2661F08F
:10120000232B242B252B21F408950A2609F4A14031
:10121000A6958FEF811D811D089597F99F6780E83E
:1012200070E060E008959FEF80EC089500240A9438
:101230001616170618060906089500240A941216B1
:101240001306140605060895092E0394000C11F4E4
:10125000882352F0BB0F40F4BF2B11F460FF04C091
:101260006F5F7F4F8F4F9F4F089557FD9058440FEA
:10127000551F59F05F3F71F04795880F97FB991FF5
:1012800061F09F3F79F087950895121613061406B2
:10129000551FF2CF4695F1DF08C01616170618063F
:1012A000991FF1CF86957105610508940895E8941A
:1012B000BB2766277727CB0197F908950E94E90895
:1012C00008F48FEF08950E9476090C9424090E9477
:1012D000160938F00E941D0920F0952311F00C9496
:1012E0000D090C94130911240C9458090E94350916
:1012F00070F3959FC1F3950F50E0551F629FF00169
:10130000729FBB27F00DB11D639FAA27F00DB11D81
:10131000AA1F649F6627B00DA11D661F829F22270A
:10132000B00DA11D621F739FB00DA11D621F839F91
:10133000A00D611D221F749F3327A00D611D231F67
:10134000849F600D211D822F762F6A2F11249F57B5
:1013500050409AF0F1F088234AF0EE0FFF1FBB1FB8
:10136000661F771F881F91505040A9F79E3F510577
:1013700080F00C940D090C9458095F3FE4F3983EFB
:10138000D4F3869577956795B795F795E7959F5F21
:10139000C1F7FE2B880F911D9695879597F90895B3
:1013A000AA1BBB1B51E107C0AA1FBB1FA617B7078B
:1013B00010F0A61BB70B881F991F5A95A9F78095A7
:1013C0009095BC01CD01089597FB072E16F400946B
:1013D00007D077FD09D00E94D00907FC05D03EF464
:1013E000909581959F4F0895709561957F4F0895D1
:1013F000A1E21A2EAA1BBB1BFD010DC0AA1FBB1F19
:10140000EE1FFF1FA217B307E407F50720F0A21B8A
:10141000B30BE40BF50B661F771F881F991F1A94F7
:1014200069F760957095809590959B01AC01BD0121
:08143000CF010895F894FFCFED
:101438000401000000005700000000000000000048
:10144800000000000000000000000001011312115C
:101458001008090A0B0C0D1E1F0000005F02000097
:101468000000000000000000000000000000003F35
:10147800065B4F666D7D077F6F777C395E7971807B
:0C1488004000C1053706E4074308930844
:00000001FF
