:100000000C9450000C946D000C946D000C946D00D9
:100010000C946D000C946D000C946D000C946D00AC
:100020000C946D000C946D000C946D000C946D009C
:100030000C946D000C946D000C946D000C946D008C
:100040000C946D000C942B060C946D000C946D00B8
:100050000C946D000C946D000C946D000C946D006C
:100060000C946D000C946D000C946D000C946D005C
:100070000C946D000C946D000C946D000C946D004C
:100080000C946D000C946D000C946D000C946D003C
:100090000C946D000C946D000C946D000C946D002C
:1000A00011241FBECFEFCDBFDFE3DEBF18E2A0E01B
:1000B000B8E2ECE2F2E102C005900D92A030B10787
:1000C000D9F728E2A0E0B8E201C01D92AA38B20731
:1000D000E1F70E94C4000C94A8080C940000E09181
:1000E0001452F091155241E860E875E280E090E02A
:1000F0000995E0910E52F0910F5261E08CE0099465
:10010000CF93DF9300D000D000D0CDB7DEB72FEF74
:1001100081E19AE7215080409040E1F700C0000063
:10012000E0912252F0912352ED83FE838CEF91E512
:10013000099580911852909119528B839C83E0917C
:100140001A52F0911B52E983FA83EB81FC810995E5
:10015000892B51F4FFE72AE186E0F15020408040EE
:10016000E1F700C00000F1CFE981FA8109958136FD
:1001700031F484E092E5ED81FE810995E6CF823687
:1001800021F78AE092E5F7CF0E946F000E943601C6
:100190000E948000FDCFFC01208531858281938102
:1001A0002817390709F1A081B18184819581A80FB1
:1001B000B91F6C93848195810196628173810E943D
:1001C0008E088483958320E00FB607FE02C0F89462
:1001D00021E080859185019680879187211102C059
:1001E00081E008957894FCCF80E00895FC0180853B
:1001F00091852FEF892BE1F086819781A081B181D4
:10020000A80FB91F2C910196628173810E948E08FC
:100210008683978330E00FB607FE02C0F89431E082
:1002200080859185019780879187311509F07894B1
:10023000822F0895FC01808591850895FC0180E05E
:100240000FB607FE02C0F89481E014821582168270
:10025000178210861186811509F078940895FC01A3
:1002600060837183428353830C941E01CF93DF9389
:1002700000D000D0CDB7DEB7809170008160809350
:10028000700019821A821B821C8289819A81AB813B
:10029000BC8180319742A105B10588F088ED84BF0B
:1002A0001092600084BF1092610081E08093620030
:1002B00078942496CDBFDEBFDF91CF9108958981D8
:1002C0009A81AB81BC810196A11DB11D89839A835E
:1002D000AB83BC83DACF633008F09AC2382F3695EF
:1002E00036953695E82FE77081E00E2E01C0880F15
:1002F0000A94EAF7613009F04EC0333059F178F4CE
:100300003130E9F0323081F480934104E150E7303C
:1003100008F0A0C1F0E0E655F74F0C94A208343085
:1003200021F1353069F1089580930104E150E730FF
:1003300008F086C1F0E0EF54F74F0C94A2088093C8
:100340002104E150E73008F080C1F0E0E854F74FB5
:100350000C94A20880936104E150E73008F07FC15B
:10036000F0E0E154F74F0C94A20880938104E1502F
:10037000E73008F079C1F0E0EA53F74F0C94A20897
:100380008093A104E150E73008F073C1F0E0E3533B
:10039000F74F0C94A2083330A1F1A0F42FEF2E0FE9
:1003A000313011F1323099F480934204623009F017
:1003B000ADCF273008F056C0E22FF0E0EC52F74FF7
:1003C0000C94A208343051F13530A9F1089580938E
:1003D0000204623009F0AACF2730D0F5E22FF0E016
:1003E000E552F74F0C94A20880932204623009F082
:1003F000A8CF273090F5E22FF0E0EE51F74F0C94A4
:10040000A20880936204623009F0A6CFE150E73081
:1004100070F5F0E0E751F74F0C94A2088093820446
:10042000623009F0A4CFE150E73030F5F0E0E05160
:10043000F74F0C94A2088093A204623009F0A2CF77
:10044000E150E730F0F4F0E0E950F74F0C94A208E7
:10045000809110048860809310048091300488603B
:100460008093300480915004886080935004809180
:1004700070048860809370048091900488608093F9
:1004800090048091B00488608093B00408958091B6
:1004900011048860809311048091310488608093F6
:1004A00031048091510488608093510480917104DB
:1004B0008860809371048091910488608093910496
:1004C0008091B10488608093B104089580911204F2
:1004D0008860809312048091320488608093320493
:1004E00080915204886080935204809172048860E5
:1004F000809372048091920488608093920480912A
:10050000B20488608093B2040895809113048860D7
:100510008093130480913304886080933304809126
:10052000530488608093530480917304886080939F
:100530007304809193048860809393048091B30442
:1005400088608093B3040895809114048860809338
:10055000140480913404886080933404809154049E
:10056000886080935404809174048860809374043C
:10057000809194048860809394048091B40488608E
:100580008093B404089580911504886080931504C5
:10059000809135048860809335048091550488608B
:1005A00080935504809175048860809375048091D0
:1005B00095048860809395048091B5048860809349
:1005C000B504089580911604886080931604809184
:1005D0003604886080933604809156048860809346
:1005E0005604809176048860809376048091960406
:1005F0008860809396048091B60488608093B604E6
:1006000008958091170488608093170480913704BF
:1006100088608093370480915704886080935704E2
:100620008091770488608093770480919704886034
:10063000809397048091B70488608093B7040895ED
:1006400080911004877F8093100480913004877F0D
:100650008093300480915004877F80935004809170
:100660007004877F8093700480919004877F8093CB
:1006700090048091B004877F07CF80911104877F19
:100680008093110480913104877F8093310480919D
:100690005104877F8093510480917104877F8093F8
:1006A000710480919104877F809391048091B104BB
:1006B000877F09CF80911204877F809312048091F5
:1006C0003204877F8093320480915204877F809325
:1006D000520480917204877F809372048091920407
:1006E000877F809392048091B204877F0BCF8091A3
:1006F0001304877F8093130480913304877F809352
:10070000330480915304877F809353048091730452
:10071000877F8093730480919304877F80939304F1
:100720008091B304877F0DCF80911404877F8093DD
:10073000140480913404877F80933404809154049E
:10074000877F8093540480917404877F809374041E
:1007500080919404877F809394048091B404877F70
:100760000FCF80911504877F809315048091350405
:10077000877F8093350480915504877F809355044B
:1007800080917504877F8093750480919504877F9D
:10079000809395048091B504877F11CF80911604D2
:1007A000877F8093160480913604877F8093360478
:1007B00080915604877F8093560480917604877FCA
:1007C0008093760480919604877F8093960480912D
:1007D000B604877F13CF80911704877F8093170417
:1007E00080913704877F8093370480915704877FF7
:1007F0008093570480917704877F8093770480915A
:100800009704877F809397048091B704877F15CFE3
:100810000895633008F068C0482F46954695469580
:10082000877021E030E0F90101C0EE0F8A95EAF708
:100830006130F1F4433099F038F4413069F04230DE
:1008400041F4E09345040895443061F0453069F087
:100850000895E09305040895E09325040895E09336
:1008600065040895E09385040895E093A504089530
:10087000F0F4433099F038F4413069F0423041F4FB
:10088000E09346040895443061F0453069F00895DE
:10089000E09306040895E09326040895E093660427
:1008A0000895E09386040895E093A60408954330E4
:1008B00099F038F4413069F0423041F4E093470454
:1008C0000895443061F0453069F00895E0930704DD
:1008D0000895E09327040895E09367040895E09352
:1008E00087040895E093A7040895982F9695969508
:1008F0009695282F277041E0022E01C0440F0A94DC
:10090000EAF79330D9F038F49130A9F0923049F4F5
:100910008091480408C09430A1F09530A9F080E09F
:10092000089580910804842390E002C095958795EE
:100930002A95E2F7089580912804F5CF8091680404
:10094000F2CF80918804EFCF8091A804ECCF9091F2
:10095000040895FFFCCF809302080895CF93DF939E
:10096000EC018881811103C0DF91CF910895219618
:100970000E94A704F6CF0E94AE048DE00E94A70457
:100980008AE00C94A704CF93DF93EC01FE018491DD
:10099000811103C0DF91CF910895FE0184910E94DF
:1009A000A7042196F3CF0E94C3048DE00E94A70400
:1009B0008AE00C94A7040F931F93CF93DF93EC016D
:1009C0008C01060F171FC017D10729F4DF91CF91B3
:1009D0001F910F91089589910E94A704F4CF9091DF
:1009E0000408907681E0911101C080E0089580E0D4
:1009F00098E20C941E01CF93DF93E0E0F8E01582BB
:100A000016821782C0910E52D0910F5260E081E0A1
:100A1000FE01099580E098E20E941E0160E080E0FE
:100A2000FE01DF91CF91099480E098E20C94F600EA
:100A300080E098E20C941A014F925F926F927F923D
:100A40008F929F92AF92BF92CF92DF92EF92FF92DE
:100A5000CF93DF93CDB7DEB72897CDBFDEBF6983D5
:100A60007A838B839C834D83C0900E52D0900F521B
:100A700061E080E0F601099560E081E0F60109950A
:100A800080E88093050840E850E06AE078E280E082
:100A900098E20E942F018D8182958F709AEF980FB6
:100AA0008550933008F080E09D81969596959370DF
:100AB000913009F4C5C0923009F4C4C09D8193708F
:100AC000923009F488608093070869817A818B816C
:100AD0009C810E946F076D837E838F83988720E0BF
:100AE00030E040E851E40E9421089B01AC0160E83D
:100AF00076E988E99EE40E94CE0620E030E040E0FE
:100B00005FE30E945D066B017C010E9440076983E0
:100B10007A838B839C8329813A81B90180E090E0BC
:100B20000E946F079B01AC01B601C7010E945C06E1
:100B30009601A7010E94CE0620E030E048EC52E486
:100B40000E9421086B017C0140E050E09A010E9464
:100B5000C90687FF04C0F7FAF094F7F8F09420E094
:100B600030E040E051E46D817E818F8198850E9464
:100B700021089B01AC0160E876E988E99EE40E94C7
:100B8000CE0620E030E040E05FE30E945D064B01CE
:100B90005C010E9440072B0180E090E00E946F07FB
:100BA0009B01AC01B401C5010E945C069401A50142
:100BB0000E94CE0620E030E048EC52E40E9421087A
:100BC0004B015C0140E050E09A010E94C90687FF9A
:100BD00004C0B7FAB094B7F8B09420E030E040E039
:100BE0005FE3B601C7010E94C90687FD08C09401F2
:100BF000A501B601C7010E94C90618162CF189810A
:100C00009A81809308089093090890EC998380E07A
:100C100098E20E941E01F981F09306082896CDBF44
:100C2000DEBFDF91CF91FF90EF90DF90CF90BF902C
:100C3000AF909F908F907F906F905F904F900895AE
:100C400080633CCF80623ACF4092080850920908F6
:100C5000E2ECE983DCCF1F920F920FB60F921124C2
:100C60002F933F934F935F936F937F938F939F93B4
:100C7000AF93BF93CF93EF93FF9380910108C091FF
:100C80000008867439F46C2F80E098E20E94CB0053
:100C9000C0930208FF91EF91CF91BF91AF919F91C7
:100CA0008F917F916F915F914F913F912F910F9015
:100CB0000FBE0F901F9018955058BB27AA270E946F
:100CC00074060C94E7070E94D90738F00E94E007E9
:100CD00020F039F49F3F19F426F40C94D6070EF453
:100CE000E095E7FB0C94D007E92F0E94F80758F332
:100CF000BA17620773078407950720F079F4A6F501
:100D00000C941A080EF4E0950B2EBA2FA02D0B01AF
:100D1000B90190010C01CA01A0011124FF27591B40
:100D200099F0593F50F4503E68F11A16F040A22F46
:100D3000232F342F4427585FF3CF469537952795B7
:100D4000A795F0405395C9F77EF41F16BA0B620BB6
:100D5000730B840BBAF09150A1F0FF0FBB1F661FFD
:100D6000771F881FC2F70EC0BA0F621F731F841F40
:100D700048F4879577956795B795F7959E3F08F066
:100D8000B0CF9395880F08F09927EE0F9795879528
:100D900008950E94AC0708F481E008950E94E206DD
:100DA0000C94E7070E94E00758F00E94D90740F032
:100DB00029F45F3F29F00C94D00751110C941B08C3
:100DC0000C94D6070E94F80768F39923B1F35523D2
:100DD00091F3951B550BBB27AA276217730784074E
:100DE00038F09F5F5F4F220F331F441FAA1FA9F3E4
:100DF00035D00E2E3AF0E0E832D091505040E695D2
:100E0000001CCAF72BD0FE2F29D0660F771F881F32
:100E1000BB1F261737074807AB07B0E809F0BB0B25
:100E2000802DBF01FF2793585F4F3AF09E3F510539
:100E300078F00C94D0070C941B085F3FE4F3983EC5
:100E4000D4F3869577956795B795F7959F5FC9F722
:100E5000880F911D9695879597F90895E1E0660FA3
:100E6000771F881FBB1F621773078407BA0720F01C
:100E7000621B730B840BBA0BEE1F88F7E095089585
:100E80000E94000888F09F5798F0B92F9927B75112
:100E9000B0F0E1F0660F771F881F991F1AF0BA951E
:100EA000C9F714C0B13091F00E941A08B1E008955A
:100EB0000C941A08672F782F8827B85F39F0B93F4C
:100EC000CCF3869577956795B395D9F73EF49095D1
:100ED0008095709561957F4F8F4F9F4F0895E8944F
:100EE00009C097FB3EF490958095709561957F4F72
:100EF0008F4F9F4F9923A9F0F92F96E9BB27939520
:100F0000F695879577956795B795F111F8CFFAF42F
:100F1000BB0F11F460FF1BC06F5F7F4F8F4F9F4F60
:100F200016C0882311F096E911C0772321F09EE8BE
:100F3000872F762F05C0662371F096E8862F70E024
:100F400060E02AF09A95660F771F881FDAF7880FFE
:100F50009695879597F90895990F0008550FAA0B54
:100F6000E0E8FEEF16161706E807F907C0F01216BC
:100F70001306E407F50798F0621B730B840B950BBF
:100F800039F40A2661F0232B242B252B21F4089514
:100F90000A2609F4A140A6958FEF811D811D0895B1
:100FA00097F99F6780E870E060E008959FEF80EC1C
:100FB000089500240A9416161706180609060895BF
:100FC00000240A9412161306140605060895092E25
:100FD0000394000C11F4882352F0BB0F40F4BF2B94
:100FE00011F460FF04C06F5F7F4F8F4F9F4F0895D4
:100FF00057FD9058440F551F59F05F3F71F04795CA
:10100000880F97FB991F61F09F3F79F087950895AE
:10101000121613061406551FF2CF4695F1DF08C0CD
:10102000161617061806991FF1CF869571056105EA
:1010300008940895E894BB2766277727CB0197F992
:1010400008950E9434080C94E7070E94D90738F0ED
:101050000E94E00720F0952311F00C94D0070C9427
:10106000D60711240C941B080E94F80770F3959F73
:10107000C1F3950F50E0551F629FF001729FBB278F
:10108000F00DB11D639FAA27F00DB11DAA1F649F2B
:101090006627B00DA11D661F829F2227B00DA11DDE
:1010A000621F739FB00DA11D621F839FA00D611D64
:1010B000221F749F3327A00D611D231F849F600D85
:1010C000211D822F762F6A2F11249F5750409AF0AE
:1010D000F1F088234AF0EE0FFF1FBB1F661F771F3A
:1010E000881F91505040A9F79E3F510580F00C9405
:1010F000D0070C941B085F3FE4F3983ED4F3869529
:1011000077956795B795F795E7959F5FC1F7FE2BA4
:10111000880F911D9695879597F90895AA1BBB1B7B
:1011200051E107C0AA1FBB1FA617B70710F0A61BE7
:10113000B70B881F991F5A95A9F780959095BC0108
:10114000CD010895EE0FFF1F0590F491E02D099455
:10115000F894FFCF4703640381039E03BB03D803C6
:10116000F5033D035A0377039403B103CE03EB0366
:1011700042035F037C039903B603D303F0034C03DC
:1011800069038603A303C003DD03FA0351036E035F
:101190008B03A803C503E203FF0356037303900305
:1011A000AD03CA03E7030404510270028F02AE02CA
:1011B000CD02EC020B03470266028502A402C302C1
:1011C000E20201034C026B028A02A902C802E70292
:1011D0000603560275029402B302D202F102100312
:1011E0005B027A029902B802D702F6021503600286
:0C11F0007F029E02BD02DC02FB021A031B
:1011FC0057656C636F6D650048656C6C6F00427968
:10120C0065006B01090475041C05FB041805140525
:10121C00F704A704AE04BB04C304D304DB04EF043B
:00000001FF
