:100000000C9450000C946D000C946D000C946D00D9
:100010000C946D000C946D000C946D000C946D00AC
:100020000C946D000C946D000C946D000C946D009C
:100030000C946D000C946D000C946D000C946D008C
:100040000C946D000C946D000C946D000C946D007C
:100050000C946D000C946D000C946D000C946D006C
:100060000C946D000C946D000C946D000C946D005C
:100070000C946D000C946D000C946D000C946D004C
:100080000C946D000C946D000C946D000C946D003C
:100090000C946D000C946D000C946D000C946D002C
:1000A00011241FBECFEFCDBFDFE3DEBF18E2A0E01B
:1000B000B8E2EAE6F8E002C005900D92A030B10780
:1000C000D9F728E2A0E0B8E201C01D92A030B20743
:1000D000E1F70E9495000C94DC030C940000E09181
:1000E0006448F091654861E08CE00994C0916648ED
:1000F000D091674861E08CE0FE010995FFEF28E0B0
:100100008DE3F15020408040E1F700C0000060E046
:100110008CE0FE010995FFEF28E08DE3F1502040CF
:100120008040E1F700C00000E5CF0E946F000E9410
:100130007600FDCF633008F09AC2382F3695369599
:100140003695E82FE77081E00E2E01C0880F0A94E3
:10015000EAF7613009F04EC0333059F178F43130AC
:10016000E9F0323081F480934104E150E73008F047
:10017000A0C1F0E0E252FC4F0C94D603343021F1E0
:10018000353069F1089580930104E150E73008F0BB
:1001900086C1F0E0EB51FC4F0C94D6038093210410
:1001A000E150E73008F080C1F0E0E451FC4F0C94DE
:1001B000D60380936104E150E73008F07FC1F0E09E
:1001C000ED50FC4F0C94D60380938104E150E7304E
:1001D00008F079C1F0E0E650FC4F0C94D603809310
:1001E000A104E150E73008F073C1F0E0EF5FFB4F8E
:1001F0000C94D6033330A1F1A0F42FEF2E0F313041
:1002000011F1323099F480934204623009F0ADCF9D
:10021000273008F056C0E22FF0E0E85FFB4F0C9467
:10022000D603343051F13530A9F10895809302049A
:10023000623009F0AACF2730D0F5E22FF0E0E15F7D
:10024000FB4F0C94D60380932204623009F0A8CFB0
:10025000273090F5E22FF0E0EA5EFB4F0C94D603D6
:1002600080936204623009F0A6CFE150E73070F568
:10027000F0E0E35EFB4F0C94D6038093820462307F
:1002800009F0A4CFE150E73030F5F0E0EC5DFB4F32
:100290000C94D6038093A204623009F0A2CFE150FF
:1002A000E730F0F4F0E0E55DFB4F0C94D60380916D
:1002B00010048860809310048091300488608093DB
:1002C00030048091500488608093500480917004C1
:1002D000886080937004809190048860809390047B
:1002E0008091B00488608093B004089580911104D7
:1002F0008860809311048091310488608093310478
:1003000080915104886080935104809171048860C9
:10031000809371048091910488608093910480910E
:10032000B10488608093B1040895809112048860BC
:10033000809312048091320488608093320480910B
:100340005204886080935204809172048860809384
:100350007204809192048860809392048091B20428
:1003600088608093B204089580911304886080931C
:100370001304809133048860809333048091530484
:100380008860809353048091730488608093730421
:10039000809193048860809393048091B304886073
:1003A0008093B304089580911404886080931404AA
:1003B0008091340488608093340480915404886070
:1003C00080935404809174048860809374048091B5
:1003D00094048860809394048091B404886080932E
:1003E000B404089580911504886080931504809169
:1003F000350488608093350480915504886080932B
:1004000055048091750488608093750480919504EB
:100410008860809395048091B50488608093B504CA
:1004200008958091160488608093160480913604A4
:1004300088608093360480915604886080935604C7
:100440008091760488608093760480919604886019
:10045000809396048091B60488608093B6040895D2
:100460008091170488608093170480913704886016
:10047000809337048091570488608093570480915B
:1004800077048860809377048091970488608093D4
:1004900097048091B70488608093B7040895809191
:1004A0001004877F8093100480913004877F8093AD
:1004B000300480915004877F8093500480917004B1
:1004C000877F8093700480919004877F809390044D
:1004D0008091B004877F07CF80911104877F80933C
:1004E000110480913104877F8093310480915104FD
:1004F000877F8093510480917104877F809371047A
:1005000080919104877F809391048091B104877FCB
:1005100009CF80911204877F809312048091320466
:10052000877F8093320480915204877F80935204A6
:1005300080917204877F8093720480919204877FF8
:10054000809392048091B204877F0BCF8091130433
:10055000877F8093130480913304877F80933304D3
:1005600080915304877F8093530480917304877F25
:100570008093730480919304877F80939304809188
:10058000B304877F0DCF80911404877F8093140478
:1005900080913404877F8093340480915404877F52
:1005A0008093540480917404877F809374048091B5
:1005B0009404877F809394048091B404877F0FCF45
:1005C00080911504877F8093150480913504877F7F
:1005D0008093350480915504877F809355048091E2
:1005E0007504877F8093750480919504877F80933D
:1005F00095048091B504877F11CF80911604877F81
:100600008093160480913604877F8093360480910E
:100610005604877F8093560480917604877F809369
:10062000760480919604877F809396048091B60427
:10063000877F13CF80911704877F80931704809161
:100640003704877F8093370480915704877F809396
:10065000570480917704877F809377048091970473
:10066000877F809397048091B704877F15CF089583
:10067000633008F068C0482F4695469546958770C8
:1006800021E030E0F90101C0EE0F8A95EAF7613010
:10069000F1F4433099F038F4413069F0423041F4DC
:1006A000E09345040895443061F0453069F00895C1
:1006B000E09305040895E09325040895E09365040C
:1006C0000895E09385040895E093A5040895F0F457
:1006D000433099F038F4413069F0423041F4E0930E
:1006E00046040895443061F0453069F00895E09380
:1006F00006040895E09326040895E093660408959F
:10070000E09386040895E093A6040895433099F099
:1007100038F4413069F0423041F4E09347040895E1
:10072000443061F0453069F00895E093070408957E
:10073000E09327040895E09367040895E093870405
:100740000895E093A7040895982F96959695969509
:10075000282F277041E0022E01C0440F0A94EAF7C7
:100760009330D9F038F49130A9F0923049F4809167
:10077000480408C09430A1F09530A9F080E00895B5
:1007800080910804842390E002C0959587952A956E
:10079000E2F7089580912804F5CF80916804F2CFA4
:1007A00080918804EFCF8091A804ECCFEE0FFF1F5B
:1007B0000590F491E02D0994F894FFCF760293020E
:1007C000B002CD02EA02070324036C028902A602EA
:1007D000C302E002FD021A0371028E02AB02C802DC
:1007E000E50202031F037B029802B502D202EF0268
:1007F0000C03290380029D02BA02D702F4021103FE
:100800002E038502A202BF02DC02F90216033303A3
:1008100080019F01BE01DD01FC011B023A0276014D
:100820009501B401D301F201110230027B019A015A
:10083000B901D801F701160235028501A401C301EF
:10084000E201010220023F028A01A901C801E70179
:100850000602250244028F01AE01CD01EC010B021C
:040860002A0249021D
:060864009A003803A40312
:00000001FF
